:100000004D424E014D3448500005040001002200CD
:100010006000000000C000000000000000000000C0
:100020000000EEEE000000000000000000000000F4
:1000300001000005000000000000000000000000BA
:100040000200130100002B000000000000AC0000C3
:10005000030013012B00300000AC0000001400006E
:1000600000380020ED020000000000000000000049
:100070000000000000000000000000000000000080
:100080000000000000000000000000000000000070
:10009000000000000000000000000000B5010000AA
:1000A000E1010000FD010000B9010000CD010000E8
:1000B00000000000002934D00123002210B488423F
:1000C0002CD301242407A14204D2814202D2090187
:1000D0001B01F8E7E400A14204D2814202D24900A8
:1000E0005B00F8E7884201D3401A1A434C08A0424B
:1000F00002D3001B5C0822438C08A04202D3001BE1
:100100009C082243CC08A04202D3001BDC082243F7
:10011000002803D01B0901D00909E3E7101C10BC1B
:100120007047002801D00020C04307B4024802A154
:100130004018029003BDC046D90000000029F0D04D
:1001400003B5FFF7B9FF0EBC4243891A1847C046F2
:10015000002941D010B4041C4C40A44601230022C5
:10016000002900D54942002800D5404288422CD3BE
:1001700001242407A14204D2814202D209011B01B9
:10018000F8E7E400A14204D2814202D249005B00B8
:10019000F8E7884201D3401A1A434C08A04202D320
:1001A000001B5C0822438C08A04202D3001B9C0861
:1001B0002243CC08A04202D3001BDC0822430028C3
:1001C00003D01B0901D00909E3E7101C6446002C89
:1001D00000D5404210BC7047002806D003DB002049
:1001E000C043400801E08020000607B4024802A195
:1001F0004018029003BDC046190000000029EBD052
:1002000003B5FFF7A7FF0EBC4243891A1847C04643
:100210007047C046FEE70000034B01225A70A0233E
:100220000022DB051A70704758120020034B012290
:100230009A70A0230022DB059A70704758120020A4
:1002400008B5044B01221A70034B0022DA7700F044
:10025000B5FD08BD581200200800005038B58025B3
:10026000ED052B79DBB2002B0CD130490B604B60D4
:100270002B89081C9BB28B608A680C30103107F008
:1002800017FD47E0012B0DD1284BD968002941D03B
:100290005A68186982423DDA5A68501C58602B7AB5
:1002A0008B5437E0022B30D1204CE368002B2AD04E
:1002B000226821698A420CDA22689B5C1BBAEB60D7
:1002C000A3682068C01880B207F04EFD2368013390
:1002D00017E0A2682368201C211CD2180C301031B2
:1002E00007F0E6FCE368002B0DD0A16822688A18AD
:1002F000A2601B781BBAEB60A06880B207F034FDE7
:100300000123236006E0EB6004E0032B02D1074BDE
:1003100000225A60C0468023DB0501221A70C046C5
:1003200002221A7000221A7038BDC046180300203D
:1003300080230222DB05FF321A600421024AFF31CA
:10034000118000221A70704706000040F8B5A02303
:10035000DB059B684A4A1F21DBB21160D12B0BD011
:10036000D02B01D80133DBB2A022D2059168FF2047
:10037000814319439160F1E70023424A42499A18A8
:100380008A4204D24149C95804331160F5E7404B11
:10039000404A191D043B934203D200221A600B1CF1
:1003A000F6E7EFF308823C4B191D043B9A4203D950
:1003B0003A4818600B1CF7E7FFF7BAFF384939488D
:1003C000053989B280B204F0DBFE374C374D01238A
:1003D0005B4223716371A371E3712B1C3C331A7868
:1003E0002B1C3D331B781B02134398423FD107F06F
:1003F00047FC2F4B2F4918882F4A88420BD06E7D1F
:1004000018882B7D36023343984204D113889BB25F
:1004100023711B0A637113888B421BD0EE7DA87D6C
:10042000138836023043834214D100200423013B59
:10043000DBB2FF2B07D0214EEF18F65C3F79B742B5
:10044000F5D10120F3E7002804D013889BB2A371F3
:100450001B0AE371637922791B0213438B4206D096
:10046000E279A37912021A43124B9A4204D1144B37
:1004700002221A6062B6FEE700F080F8F7E7C04695
:10048000280000500000002018030020F0A7000002
:100490001C03002054120020A0120020CDCDCDCD91
:1004A00000C00000000000005C120020C0BF00007F
:1004B000FEAB0000FFFF0000BEBF000000AC00006C
:1004C00000E100E0014B18607047C0466412002054
:1004D000014B18687047C04664120020014B186039
:1004E0007047C04668120020014B18687047C0462C
:1004F00068120020014B18687047C04600000020B9
:1005000038B5104C256805F023FAA862256805F077
:1005100023FAE862256805F023FA6861256805F08A
:1005200023FAA861256805F037FA074922680968A7
:10053000131CFC330E31E861D962022111670322DA
:100540005A6138BD000000206812002008B502F092
:1005500035FF021E05D10749A9230B7107F038FBAF
:10056000FEE7054B1B6803CB04F082FEFFF7C8FFD4
:1005700008BDC046C70600200403002037B507F0B9
:10058000B9F96C460734207009F03EFF09F0A8FF66
:1005900002F0B0FEFFF7DAFF07F0ACF9051C0E28F9
:1005A00000D90E25E8B2034B8200D358211C98478E
:1005B0002570F1E704000020144B70B51C68002181
:1005C000231C1D1C002260188035322682672E6095
:1005D000903064266E600260181C98300225056019
:1005E000012545601D1C0120AC3540422860286271
:1005F0002A612A63043D28602862181CD83004311F
:100600002A61083302600829DBD170BD0000002098
:10061000F0B595B000AFB961F86105F0FDFCC5001B
:100620008400083538636846401B85466E46FE6385
:1006300005F016FD6846401B854605F02DFD534A22
:10064000A60812686D46111CBA639C32FA62FA6BF6
:100650000023B60012192D193B647B64BB64FB6454
:10066000BE627A623D628C467B63FB633A6A786B5A
:100670007D6B7E6A8018FC6BAD19F860386BA30047
:100680003D610022043A013811D33D694026F61835
:10069000F659AD584024E418BD60AD19E5513C1C35
:1006A000FD6848341E59AD58AE191E51EAE7FA6A82
:1006B0000220141C183C25680138632D09DD002533
:1006C0000126256076421562012516614540664681
:1006D000B5672568013525604025ED18EC59166A87
:1006E000A64200D214621569A54200D914611668A9
:1006F000012E0ADD012500246D4214601563146487
:10070000012564469034454025601468156C013419
:1007100014603C1C48341C59A54200D21464166B6A
:10072000A64200D91463043A0028C2D1F86B8C6F3A
:1007300043001A19BD6B9200AA18101CB830A832D9
:1007400012680068FE69801A0A1CF0529032126822
:10075000BC699A189200AA18101CD830C8321268C6
:100760000068FD6B801AE052FE6A7A6BBB6A013545
:1007700008360420D218FD630431FE6284447A6393
:10078000022D00D072E7BD4615B0F0BD000000207C
:10079000F0B585B01F1C0AAB1B78151C01910393A3
:1007A000041C04F059FC1E4B281C1B680021DA684D
:1007B000920009F035FF019E002E0CD0201C05F0A0
:1007C00067FA184B281C1B68391C5A69002307F06C
:1007D0009BFC013EF0E7002C0FD1124B1B685F69B8
:1007E000DB69029305F0A2F8061C05F0A9F802994E
:1007F000031C321C381C07F03DFB281C0021019A09
:1008000007F0D6FC039B012B08D1002C06D1054B29
:10081000201C1D6805F09AFBFC35A86305B0F0BDEF
:100820000403002000000020F0B589B00591069275
:100830000793049007F000FB234B80791B6802901C
:100840005A699B6905985A430021920009F0E8FE15
:10085000029F013F7A1C2BD0049805F019FA1A4B1D
:100860001E6872690192019B013B0393F1D3B46945
:10087000164B059AE518039B6343ED18AD00551917
:10088000013C13D3B368019A5343E3180133069A2A
:100890009B0098582B6818182860002F04D10299E3
:1008A000FFF708FC00042860043DE9E7039AD9E754
:1008B000079B012B06D1064B04981C6805F046FBEC
:1008C000FC34E06309B0F0BD04030020FFFFFF3FEC
:1008D0000000002030B5214D85B02B681A1CFF3276
:1008E000517B973A002904D1191CE8310978002975
:1008F00001D0002111701478002C1DD0D96E002079
:1009000001919A6B164902921B6B01AA0393032370
:100910004B707C235B42CB7010230B7107F058F9AE
:100920002B680024DA6E196F8A4202DC0132DA6623
:1009300010E0DC6601240DE09A6B1B6B0949019203
:1009400002930920642301AA0B71039407F040F974
:100950002B68DC66201C05B030BDC04600000020BE
:100960008C00002093000020F0B593B004AF3A61F2
:10097000B86007F06DFA6D463D60704D78602B6889
:1009800068461C6804346400221C0832D208D20075
:10099000801A5A68854604325200131C0833DB085B
:1009A000DB00C01A04AE854604A97961081C002149
:1009B00009F036FE221C0021301C09F031FE604C8B
:1009C000B86823685A69191CDB690090301D0190D2
:1009D0007869303104300290386903F0BDFB594B1F
:1009E0001B78013B5A1E93415B4218402B68F8600C
:1009F0009A6891001A68236801324A4358690021B5
:100A000009F00EFE2068436D6430036008F002FDBB
:100A10007D6823682A7B5869009201967D69191CBC
:100A2000029530335C313A6903F0BCFD3D68AD4658
:100A300007F01AFA051C07F079FD2B7B002B0CD070
:100A400074300378002B08D122687823FF33D35CFD
:100A5000012B02D0012004F029FD384E3A493368B9
:100A60007F255A6818684A709A68CB780870AB433B
:100A700002208024034364422343CB7053238A70B3
:100A80000B7101323B6952009A18012007F0A0F85F
:100A9000381C00212022183009F0C2FD3368186884
:100AA00059689A6838767976BA760533DB7F0132F1
:100AB000FB767B7F5200AB4302252B433D691C43F1
:100AC000AA187C77391C0092002201201831131CCF
:100AD00007F044F802F012FC02F036FCFFF7FAFED1
:100AE000002826D1164C2368586905F0A5F9256819
:100AF000281C291C5C31303003F036FD2368286641
:100B0000186E05F0F7F804F0CBFEFD68002D07D154
:100B10002368B8681A1C30321B68396907F012FA6A
:100B2000022004F0F1FC2068643008F073FC05201A
:100B300000E00420BD460FB0F0BDC0460403002015
:100B400000000020C5070020C0060020F0B594007A
:100B5000231C0A3385B0DB08DB006946C91A02AFE3
:100B60008D4602AA061C7A60101C0021221C09F086
:100B700057FD231C0833DB08DB006946C91A8D4684
:100B800002AD281C221C002109F04AFD0C4C301C2F
:100B90002368D96A9A6A5C3300910193291C7B68A7
:100BA00008F05AFC301C02F03BFC2368301C9A6AA7
:100BB000DB6A291C00937B6807F0BCFEBD46F7BDCD
:100BC0000000002070B50C1C151C1E1C08F00EF94E
:100BD0000B4B201C1B68996ADA6A08F00BFA201C80
:100BE00008F0ECFD201C08F0FFFA291C321C201C28
:100BF00008F09CFB291C201C03F01EFA70BDC046A7
:100C00000000002038B509F0ABFB051C012009F0FD
:100C1000BBFB041C281C04F007FA201C04F010FA8B
:100C200038BD38B509F096FC09F0A2FB051C002080
:100C300009F0AAFB041C281C04F0F6F9002005F0BA
:100C4000A5F8201C04F0FCF904F010FC38BD10B528
:100C5000A4B08C22041C002101A809F0E1FC01A829
:100C6000211C08F0A3FB08F0CDFB01A8211C02F019
:100C700049FC24B010BD0000F7B5071C07F056FC76
:100C8000494E34682379002B02D0012B2AD06FE023
:100C9000464A211C1268FC318D6B011D1278C96F08
:100CA0002260002905DC2169414B994202D0236969
:100CB00001332361236993425ADD0830C36F002B4F
:100CC00056D13C48221C017874321370002937D069
:100CD00096214900605C012203300240354862548D
:100CE00003702DE0314B271C1B68FC3701935B78A8
:100CF000FD6B23602069A8235B000130E15AFFF7F8
:100D00007DFA002904D12369002B01DDBB6BED18AE
:100D1000A9235B00E35C012B04D0231CFE33DB8C96
:100D2000002B05D0019ABD6B13782360002312E0DD
:100D300022691F4B9A421BD023690133236117E0BC
:100D40000023A2690420391CFFF76EFD04F006FCA5
:100D500004F0A4FF01233168A920002240000A54B6
:100D60000B710A6114490E33101C0B7106F030FF31
:100D70003368186805F0AEF9041C281C05F0CEF99C
:100D8000241A002C09DD3368186805F0A3F9041C47
:100D9000281C05F0C3F9201A00E0012004F086FBAE
:100DA00004F0A6FBF7BDC04600000020681200203A
:100DB000FFFFFF7FC5070020C706002008B5084BCE
:100DC00078221B68FF329A5C002A08D11B79042024
:100DD000012B02D0002B02D1022004F00FFF08BD2E
:100DE00000000020F0B5404895B008AA011C131C73
:100DF00070C970C370C970C370C970C370C970C343
:100E000002AB01930199031C303370CB70C131CB1D
:100E100031C1364B7A211B68FF31595C9620400066
:100E2000002950D0185C012793210C244443B94079
:100E3000595CA4460091009CC51C460018206043E4
:100E40009E19FE366044718884583D40A14206DAFE
:100E50001018F6884268F717D00F964247412A1CAF
:100E600080325200D65A962252002148012F07D1D3
:100E7000B14205D99D5430250770FF3500275F55D5
:100E80009A5C012A28D10278002A25D1009C0C22E4
:100E9000544302AD2C593022FF32A14204DAA6425B
:100EA00002DA995C013100E0002199549A5CC82A69
:100EB00012D99621002249005A5401210170302193
:100EC000FF315A5408E01A5C012A05D11954302028
:100ED000FF301954064B1A70054B1878431E984181
:100EE000C0B215B0F0BDC0465CA6000000000020F6
:100EF000C5070020F0B587B006F0B6FF029007F0F6
:100F000015FB031DDA6FB44B002A07D18830026845
:100F1000511E8A41D7B2002F05D000E001271A6880
:100F20000021F03205E01A68F0321168FE2901DC78
:100F3000013111601B68962252009D5C1A1C6D00E5
:100F40005D19FE356989EC320391002169811170C8
:100F50008F4204D0A1490968C97C00295CD0181CC3
:100F6000EB300178C9B2002908D003785BB2022BBC
:100F700000D0012313700023037029E11E1CE83602
:100F80003478002C09D0012414701A1CE932F4338F
:100F900001703170117019601BE1002F3CD1191CD8
:100FA000F4310C68002C08DD013C012C01D00C60F0
:100FB00032E003230F6013700BE11A1CFC32D26A7B
:100FC0001188874A914227D0864A69881268D28957
:100FD000914221D3814C191C2568F0312A7C096883
:100FE000914219DBFE33598804AA1180D988381C34
:100FF0005180998891801B897B49D38004234B7051
:101000000223CB7015230B7106F0E2FD724B2268B0
:101010001B68527CF4331A60704E33689C7C002C41
:1010200000D0D5E06C4D002F22D12A689B7FFC3286
:1010300012689A4214DB6D491223381C3A1C0B715A
:1010400006F0C6FD2A683068131CF83319680131B0
:101050001960C07F814203DB1F60EC3202231370F2
:101060002A680023111CEA31FC320B70136045E042
:101070002B681A1CF4321460932252009A5C002AE6
:101080003CD0FE33598804AA1180D988201C518095
:10109000998891801B895449D38004234B70022383
:1010A000CB7019230B7106F093FD2B68962252002A
:1010B000985C326840001818FE304688958B191CE1
:1010C000EA31AE4212D2C588108D85420ED2908D83
:1010D000039D85420ADA097800290FD1FC3319688B
:1010E000927F91420ADA0131196007E001220A7009
:1010F000191C0022FC31F8330A601A60364D932225
:101100002B6852009A5C002A63D102990A7B002A5C
:101110005AD01A1CE8321278002A5AD12F4E186B76
:10112000336832689B8A118B528B02933368DB8A57
:101130000093029B06F03AFE336802909B8C2A686B
:101140009C463368106BDB8C3268118C528C009398
:10115000634606F02BFE2B68962252009A5C5200E2
:101160009A18FE3251888C4602998C4507DAD2884B
:10117000824204DA32680399528D914217DBFE33C2
:10118000598804AA1180D9880020518099889180BB
:101190001B891549D38004234B700223CB7017237E
:1011A0000B7106F015FD2B680122E9331A702B68CC
:1011B0001A1CE9321278002A0BD0002F09D0E8332C
:1011C00001221A70002404E0E9331A70141C00E0B4
:1011D0000124201C07B0F0BD000000206412002094
:1011E000FFFF0000681200208C000020C7060020CE
:1011F000F0B58FB000AF786303F010FF061C03F06A
:1012000025FF386103F016FF9F4B78601B68684626
:10121000DC68231C0E33DB08DB00C01A85466D46F4
:101220003D637279A218131C0E33DB085500DB00F6
:10123000C01A2B1C0E33DB08DB00F8628546C01A8F
:10124000C11A85468D467862684678610021F86A41
:1012500009F0E6F9012149422A1C786A09F0E0F90F
:101260008A492A1C786909F0DBF9221C386B396934
:1012700009F094F97C6B002C11D1854CB3790820CE
:1012800023707379211C6370A3707F235B42E3702A
:101290003A6BD223237106F09BFCB379CBE0402557
:1012A0000024BD61FC6100210122386B05F078F952
:1012B000032004F0EDFC744B75491B681D685868E9
:1012C0009A680423CB7051230B71724B8A701B6890
:1012D00001325B69920048709A1802200D7006F086
:1012E00077FCB479BC62BC6A013C3C6200D291E0FC
:1012F0007379013B7B637C6B013400D187E03D6AED
:1013000073797C6B6B437D69E3185B005A5B624BBE
:101310009A4278D003F082FE5E4BBC6A1A685A4B40
:101320007D6B1B6852699B686343EB1801339B001C
:101330003C6AD25A437978696343EB185D00AC4646
:10134000011C61440C883C60944204D87D6A101BE7
:101350006446285323E07D6A2C1C6444251CFC60F1
:1013600000242C5F013415D0FD6AEC18257868B292
:10137000B860013001DA013503E0B868002809DD02
:10138000013D02235B420B80FB69257001339BB258
:10139000FB612CE0FD6AEC182578002D01D10A8054
:1013A0000CE06DB2681C05D13968FD688A1A2A8084
:1013B000002202E0012D01D1FF222270FC6AE11817
:1013C0000A7850B2002806DC7D6A6446285F013046
:1013D00007D0002A05D13C6B0132E3563E2B05DDD8
:1013E00005E03D6BEB56002B01DD013A0A70737985
:1013F0003C6A7D6B6343FC6AEB183D69E15CEA5C27
:101400003C6B8A18E2547D6B013D7D6373E73D6A56
:10141000BD6268E71C4BFD691B68DA681B69D3185D
:101420009D4200DB29E7BB69013BDBB2BB61002BBE
:1014300000D038E721E7013B0FD37279013AFAD3A4
:1014400071793D6B5943891869187D68E8185F30D8
:101450000D78007828180870F0E7386B0021012219
:1014600005F09EF8B379082023707379211C63700E
:10147000A3707F235B42E3703A6B1D23237106F058
:10148000A7FBBD460FB0F0BD04030020FFFF000026
:10149000C006002000000020FEFF000010B5041C64
:1014A00003F0C8FD54300078434258412040FFF714
:1014B0009FFE10BDF0B5434C8DB000AF2668B960FB
:1014C000051C06F02DFA7823FF332268F054D15C16
:1014D0003D4C002911D123680A2098622820D86247
:1014E0009E235B00D15408F08FFF08F0F9FFFFF74F
:1014F0002DF804F0B7FC482216E006F0A9FC0026FF
:10150000067008F0B5FF236803CB03F0B1FEFEF7C9
:10151000F7FF236802221A620A229A622822DA62FC
:101520001E611A685B685A439200131C0A33DB0879
:10153000DB006846C01A85466B46FB602368186866
:1015400059689C6A414389000A31E600C908C9000C
:101550006846331C401AA4000833C11A231C083300
:10156000DB08DB0085468D467860C91A68467861DD
:101570008D463961F868002109F052F8321C78690B
:10158000002109F04DF8221C3869002109F048F8C3
:1015900000237B627B697868F968BB62094BF8615C
:1015A000386939621B687821F862FF315A5C074B51
:1015B0009100CC583B1C281CB9681C33A047BD4681
:1015C0000DB0F0BD0000002004030020400000200A
:1015D00010B5041C06F020FA06F08CF9A042FBD0EE
:1015E00008F0ECFEFEF7B2FF06F03AF810BD00007E
:1015F00070B5051CFFF706FBFEF776FF234B041CB6
:101600001B68DE8906F03CF9002004F0BFFB04F003
:1016100085FB1F4B1B6831331B78002B05D0002046
:10162000E081291C012200F01BFC04F05DF9C0B22E
:1016300006F01AFBFEF764FF0120FFF72FFF06F00C
:10164000EBF906F0F3F9052815D004D8002814D0DA
:1016500003280AD806E006280AD0021C113AD2B2A2
:10166000022A0AD801F0B8FB07E005F00FFA04E0FF
:1016700003F0FCFE01E003F0E7FE06F03BF9A842B0
:10168000DFD0FFF7CEFAE68170BDC04668120020B9
:101690006412002010B5041C06F0BEF90120FFF70B
:1016A000FDFE06F027F9A042FBD010BD10B5041CCA
:1016B00006F0B2F901F08EFB06F01CF9A042FBD057
:1016C00010BD10B5041C06F0A7F904F053FC06F099
:1016D00011F9A042FBD010BD10B5041C06F09CF916
:1016E0000220211C021C00F0BBFB06F003F9A04203
:1016F000FBD010BD10B5041C06F08EF90120211C92
:10170000022200F0ADFB06F0F5F8A042FBD010BDC0
:1017100010B5041C06F080F9002004F0B9FA04F0BA
:1017200043FB06F0E7F8A042FBD010BD10B5041C47
:1017300006F072F9002003F08DFD002004F0A8FAF5
:1017400004F032FB06F0D6F8A042FBD0012003F0F3
:1017500081FD10BD704710B5041C06F05DF906F060
:10176000C9F8A042FBD010BDF0B58BB000AFB86196
:1017700003F054FC06F060FB584C6E4623689D68ED
:10178000DB687D625A00111C0E319B00C9080E33C4
:10179000C900DB08DB00761AB546F61A6D46002153
:1017A0006846B5467D61FE6008F03AFF002004F00F
:1017B0006FFA7E6A4A4A20681568B200524203688E
:1017C000BA60321C5A439100F961B107711A79600D
:1017D0009107891A3A62013B23D344683E6A321961
:1017E000261C5E437618B400FE68920034193C61F2
:1017F000FC69A2420BD03C690426A418A4466C697B
:101800007642A458B44466463460043AF0E7BE68B1
:101810003A6AA419FC617C6A7E68121B3A628919D3
:10182000D9E7BC690B2C55D1002004F031FA2B4BC1
:1018300019682B4B08681C687B6AB86143439A009F
:101840003A629A07D21A3A61FB61844666464A6850
:10185000013EB4462ED365465543FE692148B31870
:10186000121852197E6938695200B2182D18FE6894
:10187000AD0075199B003D603E6AB3420ED03D68D5
:10188000E818656904380668E858301A0025565F7C
:10189000864200DA1080043B023AEDE7BD68761913
:1018A0003E627D6AFE69761BFE617D683E6976193F
:1018B0003E61CBE70C49B8697E23D2B25B42087027
:1018C0004A708A70CB70012052237A690B7106F03E
:1018D0007FF9A9E7BD460BB0F0BDC0460403002068
:1018E00000000020FFFFFF7FC006002010B5041C91
:1018F00006F092F8201CFFF737FF05F0FBFFA0422F
:10190000F8D010BDF0B5037887B0041C012B38D196
:1019100003F084FB1C4E071C3568646806F00EF863
:10192000A6235B00E85404AD281C06F041F8684685
:1019300006F00AF8FE37201C69460F2208F02EFE3A
:10194000BB89002B03D01A0A237162716B80336844
:101950004E21FF315A1821781170A6225200985C4E
:10196000049A6B6805F0CAFA32684E23FF33D45CE0
:101970006408201C05F014FB201C05F059FC04F041
:1019800071FA012007B0F0BD0000002008B54168E1
:1019900003780C4A0C4812680068FC320E30D062A2
:1019A000002B07D00222C9B2002000F059FA074BE1
:1019B00001221A7003F098FFC0B206F055F9022018
:1019C00008BDC0460000002068120020C4070020A7
:1019D000007908B5002804D10120FFF75FFD03203E
:1019E00004E00138434243410520C01A08BD00000D
:1019F00070B5047A0678456806F02AFA002C06D0FD
:101A00000123012C06D104F02DFA002302E001236A
:101A1000042400E00524044A70B21268291C92696B
:101A2000FEF702FF201C70BD00000020F0B5037A15
:101A300085B0056806790293077B06F009FA05244C
:101A40000390012F02D104F00DFA0324039B2A68AE
:101A50005978AB68029D70B20095FEF799FE034B72
:101A60000022201C1A7005B0F0BDC046C40700203B
:101A7000031C10B59A680C1C00785968DB6800F0EC
:101A80006BFB207010BDF0B5846887B0077846689E
:101A9000656805910F22C168684608F07FFD231C28
:101AA000381C311C2A1C01F0C7F8059B187007B0C0
:101AB000F0BD0000F0B5D24C9DB000AFF8632068D7
:101AC000BA603960407C43000133FB65786303F002
:101AD000FBFE236878665B7CFF22D31A984200DD08
:101AE0007B66786E7C6B041B3C636C4603F0F4FEF3
:101AF000BC65FC6D684665002B1C0833DB08C14CD7
:101B0000DB00C01A012363707C235B423A1C8546CC
:101B1000E370211CB1230020643223716E4606F06D
:101B200057F80023211C3C6B5A001819FC6D013337
:101B3000B052A342F7DB0223CB70321CE4B2632322
:101B400000204C700B717C6406F042F82B1CBC6DBD
:101B50000833A546DB08DB006846C01A8546C01A74
:101B60006C468546BC65386404F056FAF86101207D
:101B700003F02CFD00212A1C386C08F051FDB86DD3
:101B800000212A1C08F04CFDFC6D6846A400231CB3
:101B90000A33DB08DB00C01A8546C01AFC62786293
:101BA0006C468546C01A8546BC626C46BC61FC69C1
:101BB000A4007C600024FC640021FA6AB86A08F082
:101BC0002FFD786AFF21FA6A08F02AFD00248C4B69
:101BD000BC641B68BC6C1B7C9C4258DA3C6B0026C6
:101BE000E4B2201C7C6103F084FE03F04DFE03F0A0
:101BF000E3FCBC69BD6A3C627C6AF86D0136F21791
:101C0000C30F864253416946DBB23961FB60002B4A
:101C100006D179698819C0B203F06BFE03F034FE77
:101C20007B686A460A33DB08DB00D21A95466846B1
:101C30007865B86803F0C2FFB868796D04F0F4F90C
:101C40000020031CFA69934205DA796D9A008A58DC
:101C500001338018F6E72B68984200D92860216884
:101C6000884200D2206003F09BFC3A6AFB6801C204
:101C70003A6204340435002B04D103F09DFC38692A
:101C80008546BAE73C69A546BC6C01349FE7002550
:101C90005D4E2C1CB96A7A6AA300C858D358C01A82
:101CA000864204DD3B6B061CE318BB633C65854242
:101CB00000DA051C03F074FCB96DFA6D63000134A1
:101CC000C8529442E6DB281C03F06AFC4C4B1B68AC
:101CD000DB89984206DAFC6B012C03D07C6EBC6376
:101CE0007C6B3C65FEF768FCFC6B012C21D13A6CE7
:101CF0000023BC6D5900615A1088884200D21180BF
:101D0000FC6D01330232A342F3DB3C6D63003C6C9B
:101D10001A5BFC6C131CA24200D2231C39499BB2F3
:101D20007C6CFB64002002234C70CB7008713A6C11
:101D30001FE0FC6B022C08D132497C6C042300208C
:101D40004C70CB700871BA692EE030490020FF2337
:101D5000021C0B7105F03CFF281C03F021FC2949F3
:101D600080B27C6CF86402230020BA6D4C70CB709A
:101D7000087105F02DFF3C6D6820C453BC6B6A20D0
:101D8000C4533C6D6E216300BC6D6C201B5BFC6C0E
:101D9000C353CC531B4904234B700223CB703A1C12
:101DA000B2230B710020683205F012FF184E3C6D13
:101DB00032686300111CFC31BC6DC96A1B5B098869
:101DC0008B4229D9002927D008F0C4FB041C08F055
:101DD000EBFAC379051C002B06D0012005F038FF73
:101DE0003368FC33DD622AE0002C28D1094B1B68E4
:101DF0009B7C002B23D1012005F01EFF1FE0C04675
:101E0000681200208C000020FFFFFF7FC706002023
:101E100000000020641200202821FF31525C002ABB
:101E20000DD00D4C2068C2899A4208D9002005F0D7
:101E30000FFF0A4B22681B680E32FC33DA62FC6B20
:101E4000002C04D03B68063B012B00D8B4E6B86BED
:101E5000BD461DB0F0BDC046681200200000002045
:101E6000F0B5184B87B005921A6896230390049139
:101E70005B00D35C00270193059A9624114D640002
:101E8000974214DA2A6804990292165D0398321C6C
:101E9000FFF710FE029B01219E192936FF36707153
:101EA0002B687F181A5D03320A401A55E4E72B6845
:101EB000019A1A559B182933FF33587903F019FDFD
:101EC00007B0F0BD00000020F0B585B0009203918E
:101ED000029008F03FFB061C05F07EFD071C05F094
:101EE00083FD774D92222B68019052009A5CBA4292
:101EF00022D0002F08D0734900203B23021C0B7115
:101F0000022605F065FE11E00199052400290ED195
:101F10006C493C233A1C381C0B7105F059FE932385
:101F20002A685B00D65C731E9E41F6B201249223A0
:101F300029685B00CF541DE02624FF341A5D019907
:101F40008A4216D0002907D1932252009E5C731E4C
:101F50009E41F6B23A2301E0392302265949002076
:101F6000021C0B7105F034FE019B2A6813550124F5
:101F700000E0052405F0C6FC071C05F025FD0099CE
:101F8000032902D0002F03D107E00124002F39D00C
:101F9000002005F0BFFC012434E02B68FE33DF8C09
:101FA000002F2FD1009A012A02D0022A04D00FE07C
:101FB000009805F041FE0BE0381C05F03DFE28239B
:101FC0002968FF33CB5C002B02D0381C05F040FEA3
:101FD00005F02CFE93232A685B00D35C071C834228
:101FE00010D0002802D01123012601E01223061C84
:101FF00034490020021C0B7105F0EAFD9323296887
:102000005B00CF5408F0A6FAB0423CD008F0A2FA28
:1020100008F0AEF9071C301C08F0AAF9009008F08F
:1020200099FA301C08F090FA08F05AFA264B1B680F
:10203000DB7C002B13D0012C11D0009B3A1C5632B4
:1020400056330399029806F083F8002003F020FE2F
:1020500003F084FA03F022FEFEF7AEFA06E02B68E6
:102060000020FF33587303F091FE0124002005F097
:10207000EFFD2B682822FF3200219954134AFC33CC
:1020800012680E32DA6208F065FA08F08DF9C37949
:10209000002B09D005F0D6FD2A682823FF33D15C38
:1020A000814201D0D054012405F0A6FC051C06F0A5
:1020B0003DFA0379AB4200D00571201C05B0F0BD9C
:1020C00000000020C70600206412002068120020D3
:1020D000F0B51D1C9BB004236F460E936B68002463
:1020E000061C073701203C70029403940494059465
:1020F00006900796089409940A940B940C940D94F6
:102100000F9310941194129513941490159216969F
:10211000179118951993A20002AB240118190C4BC2
:10212000391CD35898470B4B041C1A68BC235B001E
:10213000D15C012902D10021D15403E005F0DAFB82
:10214000B042E8D0E868FEF782FD1BB0F0BDC046A3
:102150004C00002000000020F0B5674F8FB0151C28
:102160000193A9223B68002452001C719C541C61FD
:10217000061C009106F0E0F9604B01991B6807947A
:10218000089409940B910C940D9406950A959A89DC
:102190005878FA2150438900FDF7DAFF3C68A823FC
:1021A000009A5B00E0521378B34203D005F034FC90
:1021B000009B1E703B6800229A6005F04FFD041CD6
:1021C00003F092FBA04206D0201C03F092FB0322F6
:1021D0006B46DA726BE04A490020021CA6230B71A1
:1021E00005F0F6FC444C276802F094FF7A23FF3395
:1021F000F8540198FEF740FD2168481C0531FF3076
:10220000FF31FEF705FA3F4B3F491B6802205B6830
:102210004B700423CB705B230B712368DA6905F0E4
:10222000D7FC2368394FFE335A88391C0392DA8869
:102230000C2004925B8903AA059301233B7105F0EE
:10224000C7FC2368391CFE339A880C2003921A8934
:1022500004929B8903AA0593D5233B7105F0B8FC32
:1022600021682B4A08796F468300D318000106AA1B
:102270000B3710189B69391C98472368EC229A5633
:102280002868A968FFF720FE052800D03870214B88
:102290001A68214B9A4202D003F06CFEFEE72368D5
:1022A0001E4A9968914202D09A6801329A606C463F
:1022B0000B342378104F052B0CD005F031FB3B6815
:1022C0007821FF315A5C824212D00121BC228A401F
:1022D00099540DE005F024FB3A687821FF31535CF6
:1022E0008342EAD105F006FBB04200D165E7E4E79E
:1022F00020780FB0F0BDC04600000020681200201A
:10230000C7060020040300208C000020930000205A
:102310004C0000209C120020CDCDCDCDFFFFFF7FD3
:10232000F7B5414C151C236801911A1CE93212784B
:10233000061C002A23D0932252009A5C002A1ED148
:102340001A1CFF32517B002919D1E8331B78002B6E
:1023500015D10123537302F06DFE071C02F05EFEDF
:102360003A1C031C56325333301C019905F0F0FE21
:1023700003F0FAFB022003F041FCFEF71DF923688D
:102380001A1CFF32527B002A4AD01A1C274F002009
:10239000E83210703A680190126A011C013A0ED3BB
:1023A0000E265643B446AC446646B688002EF5D099
:1023B00036B20131B042F1DA301C0192EEE79322DD
:1023C00052009A5C002A13D1012911DD06F0AEF803
:1023D00001230430C3673B681B6A013B0AD3019E9B
:1023E000B342FAD00E225A430021AA189180F4E792
:1023F000002903D023680022FC3305E0FC339A69EE
:1024000059698A4201DC01329A6123681A1CFC3244
:1024100091695269914205DDE83301221A7001E0A9
:10242000FC339A61F7BDC046000000200403002081
:10243000F0B57D4D9BB02A6802AF136892689E1C70
:1024400052005643B9605208311C013353430831DE
:10245000C9080468BE61C900744E6846401A8546C2
:102460000133306802A95B00CB18F9612C220021EE
:1024700030303B6108F0D4F80021BA69F86908F0FF
:10248000CFF8381C00212022203008F0C9F82B6832
:10249000202218682121D0555A682220CA559A68EE
:1024A0000533C255DB7F25202321CB55C35D7F211A
:1024B0008B4304210B43C1190B70336801325B69F4
:1024C00092009A1800920022131C0220053905F090
:1024D00045FB2068A168FA693B69FEF745FA386157
:1024E000052800D092E028686B46C16AFB600A01AB
:1024F000131C0833B8616846C01A854602A9F96101
:10250000081C002108F08CF8BB69F869DA6AE168F8
:10251000FEF71CFB2B6868469A6A0E235A43131C6D
:102520000833DB08DB00C01A854602AD0021281CF9
:1025300008F076F82369F869291CE268FEF742FB87
:10254000336800261B79B34202D1FEF74BFC061C10
:10255000FEF7D0FC364B1B68DB7C002B04D12068D7
:10256000A1682A1CFFF7DCFE002E03D1E168281CBD
:1025700000F0C8FF07F07CFA83000733DB08DB00BC
:102580006946C91A284B8D461C6802AAA36A7A615B
:10259000FB610E22013B5343ED18061C0435B86164
:1025A000FB69013BFB610FD300202B5E002B09DD93
:1025B000B9697A6901398800B9611018291D0422A6
:1025C00007F0ECFF0E3DEBE73D1C403500212022DB
:1025D000281C08F025F861682068A3686970134911
:1025E0002870AB7009680534E27FC96A0133EA706C
:1025F0005B007E22CB1852426A710093F2B2032034
:10260000291C7B6905F0AAFAFA68954603F088F957
:1026100003F0AAFA02F0A2FF03F040FB3869BB689E
:10262000BD46187019B0F0BD040300200000002062
:1026300064120020F0B5A1B00192052214925A68EC
:1026400000241592019A0125061C6F4604A81D91CD
:102650001B490F37089509900C95119516951893FD
:1026600006251B921E931F903F23201C221C3C70AA
:102670000A940B940D960E940F9410941294139444
:10268000179419951A941C960B7105F0A1FAA200E3
:1026900008AB240118190B4B391CD3589847041C5C
:1026A00005F03EF9084B1A687823FF33D35C834268
:1026B00003D105F01FF9B042E9D021B0F0BDC0460A
:1026C000C70600206C00002000000020174BF0B56A
:1026D0001B6885B01E689B68B41C5B005C4300AF40
:1026E000221C5B08FB600832114BD208B86079608D
:1026F0001868D2006946891A8D462C220021303094
:1027000007F08EFF221C6846002107F089FFFA6857
:10271000731C534301336D465B006A46EB18B8687F
:102720007968FEF721F9BD4605B0F0BD040300202D
:1027300000000020F0B595B002AFF8613B1C786E48
:102740006C331B7805780E1CBA613B60B84C002DC9
:1027500000D0ECE01378082B18D103F083FB23683A
:1027600005209A69F9692B1CFEF75EF803F07AFBE5
:102770003268B368012106200095FEF709F803F0DE
:1027800071FBB96905220D707A6146E2684678608E
:10279000052003F07DFAA74B68461B689A69510033
:1027A0005A6901324A43131C0833DB08DB00C01AA4
:1027B000854602A9B960081C291C07F031FF23686F
:1027C000FA699969B86805F071FDF860386105F03B
:1027D0004BFB994B50221B68151C59684268FF350A
:1027E0008A4203DB9A6883689A4205DA23680122E9
:1027F000191C74310A705A552368A8211A1CFC321E
:102800004900595A906CFDF7F9FC796105F074FEA6
:10281000FA68A7235B00012A0FD12268E030D45C5C
:1028200000780021A04201D8D15402E00134D454F0
:1028300039617432012313700DE022680021D154F4
:10284000535D8B4207D17D4BF8691B68B968333300
:102850001A7805F0E7FD76483969036800245C556D
:10286000051C012915D103F0FDFA062003F010FA2A
:102870003B697A6E6E4913700B68B869743370499E
:102880000470221C1C70201CA3230B7105F0A0F9FE
:1028900048E0694AA82112684900D278595A7869F3
:1028A000891A814201DD90421ADC191CFC31896CC5
:1028B000914215DD7969914215D174331C78002C51
:1028C0000DD103F0CFFAB3683268062000940121DD
:1028D000FDF75EFF2B68FC339C6403F0C3FA2B68A2
:1028E000743300221A702B685649FC339A6C8A4262
:1028F00001D001329A6404F073FE04F00FFE4F4BD6
:102900001B683333187802F0DDFD002002F0FCFD77
:10291000386802F0EEFF04F025FE02F09DFBBA6E6F
:10292000C43002607B6805209D46786175E1434BA9
:102930001B68598F343379601B78BB60BA68236891
:10294000101C1A6002F0BEFD062003F057F9306833
:10295000B168FFF7BBFE7861052800D05DE1354C1A
:10296000684625683860E96A0A01131C0833C01AF2
:10297000854602A9F960081C002107F051FEEA6AA9
:10298000F868F168FEF7E2F8236868469A6A0E2351
:102990005A43131C0833DB08DB00C01A854602A922
:1029A000F961081C002107F03BFEF868F969F2683C
:1029B0003369FEF707F9FC6900251E4B1B689B6A0B
:1029C0009D4211DAF268EB00D3182288A11C1A800C
:1029D0006288201C5A80E2880135DA80A2880E3491
:1029E0009A8006F09DFFE8E7BB69396E1A78F869AE
:1029F00007F06AF8B969421ED2B208700C4B012A7E
:102A000003D81A680021FC32D164032809D00728B2
:102A10001AD0012800D0FEE01B680022FC33DA64E3
:102A2000F9E0386E07F050FB041E1BD00DE0C046E5
:102A3000000000200403002068120020641200201F
:102A4000C7060020FFFFFF7F182404F071FF754BBD
:102A50001B681B6C18400123A3401840431E98417B
:102A6000404204407A68B868FA2150438900FDF773
:102A70006FFB6D4EA622336852009A5C051C022A39
:102A800007D1FC33DB6C834203DDB8690823037094
:102A9000002405F031FD396E381C0B6824301A888B
:102AA000BA845B88FB8406F069FF3368A622520073
:102AB0009A5C022A2CD14E22FF329B5C5A071FD50A
:102AC000182C1DD1381C283004F072FFB98D242039
:102AD0003B5EFA8D99421DDA388D0918994219DD4D
:102AE00026217B5E9A4215DA798D52189A4211DDC1
:102AF000012004F04FFFB88CF98C04F03FFF7AE01E
:102B00009A0705D51A2C03D1012004F029FF72E0A1
:102B1000002C70D1444BA6221B685200995C012204
:102B2000022905D1191CFC31C96CA94200DC002224
:102B3000B8690178082952D1D2B2002A4FD004F0E6
:102B400063FF002830D00224381C221C3749203073
:102B500007F024FD381C211C203004F0C9FF05209B
:102B600004F0F6FF381C00212022283007F058FD21
:102B7000396E28220B7B2D21D3552923DC55CB5DC3
:102B80007F2293432A20C4551C4380235B421C436D
:102B90003B6ECA191B681470391C00220093052073
:102BA0002831131C04F0DAFF02F0DEFF012002F0EE
:102BB0007DFC786E00241C4B04701B68201CFC33C9
:102BC000DC649C6404F0CCFE201C04F0E3FE184995
:102BD000A223201C221C0B7104F0FAFF18E0FC3326
:102BE000DA6C14498A4201D00132DA6402F0BCFF87
:102BF00002F096FE0CE0282202212923D019D1559B
:102C0000DC5504F075FF02F0AFFF012002F04EFC2E
:102C10003868854601E0002424E77869BD4613B092
:102C2000F0BDC0466412002000000020A4A60000F1
:102C3000C7060020FFFFFF7FF0B5EBB0099370AB34
:102C40001B7808929A075B07DB0F06936B46D20F3F
:102C50002E3300240F1C07921C70051C02F0DEF9B5
:102C600002F0FAF9031CC4331B68061C059305F037
:102C700063FC6B462F33182214A8211C1C7007F02C
:102C8000CFFC1AAB14934F4B1A68A6235B00D35C9E
:102C9000022B12D14E21FF31525C1A420DD04A4B09
:102CA000FA201B6880001B8F584303F037FA02F0AC
:102CB000FDFB02F01DFC02F033FE44490020A2237C
:102CC000021C0B7104F084FF3B78AB4202D004F08D
:102CD000A3FE3D703C4A3B4B12681B6833321178AF
:102CE000A82252004900995200229A6004F0B6FFCF
:102CF000041C02F0F9FDA04204D0201C02F0F9FDF2
:102D0000042436E0059914AB00936A46213B2E3229
:102D1000019302910023099903900898FFF70AFD97
:102D20000CAF041C381C04F00FFE079A70AB500067
:102D30001A7802218A4306990243042089008243BB
:102D40000A43049139781A7006231A400B409A42BC
:102D50000FD010AF381C04F0F7FD1A4B4E22196843
:102D60003B78FF328B545A079B07D20FDB0F06923A
:102D70000793144F164A3B689968914202D09A68AB
:102D800001329A60052C0CD104F0CAFD3A68782310
:102D9000FF33D35C834206D104F0ACFDA842A5D03A
:102DA00001E0042C04D0059AC436326002F0B6FF6C
:102DB0006B462F331B78002B01D002F0D5FE201C70
:102DC0006BB0F0BD0000002064120020C706002098
:102DD000FFFFFF7F70470000F0B5A7B000AFF864B9
:102DE00002F01CF9D74B69461C68B8636568226815
:102DF00068006A43521953000833DB089200DB0075
:102E0000C91A131C0A33DB088D46DB00C91AB864E3
:102E10006846F8638D463963081C002107F000FC02
:102E2000636822689E005A43D3189A00131C0A3321
:102E3000DB08DB006846C01A85466B46FF217B62D3
:102E400007F0EEFB6068236838625843396A6A46C7
:102E500043180733DB08DB00D21AF96C954678611A
:102E6000013968460022AD00F862F9617A641629DA
:102E700010D80123B44A8B40134206D1B34A1342FF
:102E800008D0B34B1B682E3302E0B14B1B683033C4
:102E90001B787B64BB6C786CAD085B08B6080138A6
:102EA000BD613B61FE6078637A6B013200D189E0DD
:102EB000F969022903D9FB6C113B012B7ED8002054
:102EC00002F0E6FE9F4BA34A1E6815683368BC6D8E
:102ED0007B65BB62BB6A013BBB646CD37468013C1D
:102EE000611C65D0BA6AB36869695343E31801335A
:102EF000FA6C9B005858032A2AD004DC012A06D019
:102F0000022A0BD0EBE7FB6C113B012BE7D8E969F8
:102F1000A3005B58C01AC343DB171840BA6CBB69E7
:102F2000396B5343E3189B0059583A6B401898503B
:102F30007B6B002BD3D1B96C3B694B43E3185B002F
:102F4000796C3B64FDF7B6F83A6CFB6BD052C6E780
:102F5000B96CBB694B43396BE218920052583A6422
:102F6000824200D23864396C3A6BE3189B00995066
:102F7000BB6CFA68796A5A43A3189B007A605A5866
:102F80009446824200D984467B68786AE1188900B9
:102F900062460A50386C7F21831AFD2B01D85B08EA
:102FA000D9B2FB6AB86C1A193B6A4343D15496E70D
:102FB000BA6CBA628EE7B86CBC657865796B01391A
:102FC000796371E7FB6B00217B635E4B1A221B6800
:102FD00018691E6878645D680533DB7F381C5C30D7
:102FE000BB6207F01DFBBA6B05235C21CB555379FF
:102FF0005D20C35593795E21CB53537AB86B602221
:10300000D353837AFA6C6221CB53032A00D18AE02E
:1030100004DC012A14D0022A15D09DE0FB6C112B90
:1030200000DA99E0122B18DD132B00D094E07A69B6
:10303000F86A8118002203F0B3FA0023BB6272E041
:10304000F86B00F0B5F9F86B00F0B3F9381C00210B
:103050001A225C3007F0E4FA7EE0F86C11280AD1FD
:10306000691E3C1C00220123B9643962BE635834D6
:103070007A62FB6209E0701E3C1C01210022B863E9
:103080003862BD6454347962FA627E657B6D591E84
:1030900079647965002B33D0BD65BA6D531EBB656D
:1030A000002AF3D0786C796A3E694218B8694243C5
:1030B000F86AC1188A18396B92005058796CBA694D
:1030C0004E434A4384469A18386B9200125821683E
:1030D000386A9E19760081420EDA6146FA208B1A10
:1030E0008000891858434910002900DC0121FDF7B0
:1030F0002FF8FA6BB052D0E7F86B00233352CCE7CD
:10310000FA6CF86B112A02D100F055F901E000F0D9
:1031100053F9381C5C3000211A2207F081FA002391
:10312000BE6B7B6419E0F86A00217863381C5C3060
:103130001A2207F075FAF96C032910D1786B00F0A8
:1031400039F90CE0040300200400400003000300F0
:103150006412002000000020BD64022301E0BD6471
:103160000123BA6C3C1C7834796C627062792171ED
:103170007F21B86A8A4313438022E0705242381C90
:10318000391C13435C311A227E3063712670A5709E
:1031900007F004FA201C796B04F050FCBD4627B000
:1031A000F0BDC046F0B5504B85B01B6800AF9A69C2
:1031B000396001684568796051005A6901324A43B3
:1031C000131C0833DB08DB006946C91A8D46F96019
:1031D000081C002107F024FA444CF86823682A1CD4
:1031E000996905F063F8424EB860012822D102F0D7
:1031F0005DF9BA682568A9235B00EA543368286939
:10320000DB78BB60A8235B00EB5A191CFB60FCF762
:10321000F5FFBA688A4209DCFB6828699B1AF968DD
:10322000BB60FCF7EBFFBA688A420EDC7435012301
:103230002B700AE03368F9685A78281C05F0F2F818
:10324000A923216800225B00CA54A92322685B00DD
:10325000D35C002B0BD002F063FB02F085FC022054
:1032600002F016FD02F07AF902F018FD36E002F0E5
:1032700057FB02F079FC02F071F902F00FFDFDF747
:1032800039FE2568A8235B00E95A2869FCF7B6FFD8
:10329000F960002907D12B69002B04DD02F05EF9EB
:1032A000F86802F0F5FC2568A82252002869A95A9E
:1032B000FCF7A4FF3368DB7899420FD12B698B426E
:1032C0000CDD2B1C74331E78002E07D17B686969D6
:1032D000186804F0BDFE236874331E703968052336
:1032E000BD460B7005B0F0BD0403002000000020B7
:1032F0006812002008B504F051FA08BD104B10B553
:103300001B681A6B002A03DD996B5218D10F13E06A
:1033100000218A4210D10B49986B09681224095F79
:10332000962464001C5D012C01D1642252428A184B
:103330000121904200DB00216833197010BDC046A6
:10334000000000206812002010B505F0D5F8164BDB
:10335000164A1B68196B0A2914DD041C843424885E
:10336000A1420FDA64248230614300889C6B604381
:10337000C14207D593214900595C002902D1116847
:10338000013100E00021116010689E2149000328EE
:1033900003DD01205854002010605A5C002A02D03E
:1033A000683300221A7010BD00000020C8070020FA
:1033B00070477047704770477047000008B502F0CB
:1033C000ADFC01F083FF01F033FF01F0E7FE0F4B8E
:1033D0000F4A1B681268197A82239B00002901D0CA
:1033E000022100E00321D1500A4900230B700A4951
:1033F000A0220B700949D2050B709363D36B9B0E0F
:103400009B06D36362B603F065F908BD7412002011
:103410008400002029000050280000502A0000509D
:1034200038B5051CFDF766F8041C05F065F89E2309
:103430005B00E35C002B26D0134B00221B68DB6A89
:10344000013B07D3190169180820095E0029F7D14B
:103450000122F5E70D4B1B68196B002913D1986BFE
:10346000002810D1FC33002A0CD05A6CFE2A01DC53
:1034700001325A645B6C052B05DD9E2300225B0044
:10348000E25400E05A6438BD04030020000000202C
:1034900070B5051C0C1C161C04F0F2FA002802D0B2
:1034A00001280AD02DE00E225643AD19EA88FF23E9
:1034B000FE2A00D8D3B2637123E00E227243AA1809
:1034C000D188FF23FE2900D8CBB263710B250A23D4
:1034D000D35655570926ED1A08239657D356F61A90
:1034E000B54207DD281C0521FCF732FE4519A57100
:1034F000E67106E0301C0521FCF72AFE8619A6714C
:10350000E57170BDF0B5A74B8FB01B6804909E6845
:10351000DF68059601971E695F6903960697079114
:103520009F6904F0B3FAA04B01261A682623FF33E3
:10353000D35C0296002B5AD00026079D049C02966D
:1035400000969A4B009E1B681B6A9E424FDA2B889E
:103550000AA803806B88438006F010FA0420235EDB
:10356000002B3EDD238809AE33806388301C7380D6
:1035700006F004FA0021735E059A9A420ADA01986D
:10358000984207DD0221725E039E964202DA069E91
:10359000964224DC04202A5E002A1DDD844A009E17
:1035A00012689420921980001218127952B2012ADE
:1035B00012DD059EF21B9A420EDA019EF2199A4222
:1035C0000ADD09AB039E02201B5EF21B9A4203DA5E
:1035D000069EF2199A4202DC0023A38001E0012634
:1035E0000296009E0835013600960E34A9E70127A1
:1035F000049D079C01976D4B019F1B68013F1B6A4F
:1036000000979F4200DBBFE023880AAE33806388C7
:10361000301C738006F0B2F904202B5E002B00DC16
:1036200084E0614B90221B68FF32596C914200DDAF
:103630007CE01A6B5F4B9A4278DC2B8809AF3B80A9
:103640006B88381C7B8006F099F93A88584B944671
:103650001B687A88009F3088DB1968331978564BCD
:1036600076881B68002901D1413300E042330427EA
:10367000E15F1B78002910DD36B211B2891BCE172D
:1036800089197140994208DA674600B239B2091ABD
:10369000C8170918414099426CDB029E002E69D080
:1036A0000BAE337880277F421F43DF200740287B03
:1036B0000123402118400F4310239F43000101992B
:1036C0000F233843984319406746014338B277784F
:1036D000001218409F43317011B238430912F27042
:1036E000AA880340090119436046131C12B2717085
:1036F000B070FF2A00DDFF23311C009A049833715B
:10370000FFF7C6FE301C04F0CBF9294B0421625EA2
:103710001B68002A04DD009E01229B19683303E028
:10372000009F0022DB1968331A701FE00420235E1B
:10373000002B1FDD0BAE00210C22301C06F070FFA9
:10374000019B0F22134040210B43337001270AAB2A
:10375000DF5759881888DB783A405BB21B011A435F
:10376000B070301C7270F17004F09AF92B882380CD
:103770006B886380AB88019EA380EB880136E38071
:1037800001960E35083436E7094B1B681A1DD26FB7
:10379000191C743108330A70DA6704F095F90FB018
:1037A000F0BDC0469012002000000020040300205D
:1037B0000C030020973A00008C120020F0B5B64BA5
:1037C000A1B01A6878230F901091FF33D35C0D934A
:1037D000B24B0D9C1B680693B14B1B681B6A02938E
:1037E000012C03D1AF4B1B68E13302E0AE4B1B68E9
:1037F00038331B78029D0E930E235D430F9F0024E8
:103800007F19029A0A950B973B1C03940C940E3B6C
:10381000013A0BD3D988039D8D4200DA0391042726
:10382000D95F0C9C8C42F2DA0C91F0E79E4B01219F
:103830001B680F9F1A1C4E321278029D91401A1C71
:103840004F3212785033891A1A78013D8B1ADBB245
:1038500012930A9B07950E3BFB181C1C0493029BBA
:10386000069D90270933BF00EA199B00079DD318D6
:10387000043409930595059F013700D1C8E000275E
:10388000E35F002B00D1BBE0874B0D9F1B681A1C28
:1038900043321578002F04D11A1C608802CA1433F1
:1038A0000BE00D9F012F0BD17E4B60881B681A1C0B
:1038B000F8320D331168FF33043204F088FA061C25
:1038C000FCF718FE9E235B00C25C774B002A05D0F4
:1038D0001A6829321278964200DA161C1A68131CEC
:1038E00044331B78002B01D1642349E02B1C6F4F1C
:1038F000069DEF191397787B1490002820D10021A2
:10390000675E64217943CF2080008C4629181D1CF6
:103910007543AC4512DDB74210DC8D68AC4601251D
:10392000AC4467468F605F4F3F6880373F78BC4547
:1039300006D113984573149D8D6001E000208860C6
:10394000069F5A483D18697B002913D00027E15F84
:10395000CF20069F8C4680003918B44508DD886862
:103960000E9F01308860B84204D10020687300E0E7
:1039700000208860069D4D4FE919497B0029B3D08E
:10398000069D9027BF00E919059D4819057D002770
:10399000E05F002D03D00E9F6DB2BD4220DC64219C
:1039A0004143734399420EDB131C40331B78039D44
:1039B00061886B439B11994205DBD36B0C9F7B4362
:1039C0009B1198421CDA099D069F902000238000DD
:1039D000638023802B603B185A68013A5A600FE0DD
:1039E00028321278324D724368435343984207DAC3
:1039F000099D0023638023802B604B68013B4B6053
:103A0000059F099D013F043D05970E3C099532E74E
:103A1000069C9025AD00079E63190022029F5A6004
:103A20009A191432109C0F9D05920A9EFA00A21852
:103A30000392AA190C3A0292079A079F6C3252001D
:103A40009A1804320D92079A9020743252009B18F3
:103A500008330C930C237B438000069C1B18E3184F
:103A60000F93079F013700D1DDE20B9E0B9D0A3EAD
:103A70000027F35F0E3D0A950996002B00D162E204
:103A8000059C0E9A237806320133DBB259B291427B
:103A900010DC237012E0C046000000200C03002060
:103AA00004030020901200208C1200203F0300002D
:103AB000102700000E9B059D04332B70059E0023EC
:103AC000F356012B09D1049F039B3A88083B029CC3
:103AD0001A80039B2288063B1A80059E0025755795
:103AE000012D65DDA81C0321FCF788FB039CCFB2E8
:103AF0001197083C022D45D1A64B039D1868A64B93
:103B00000021625E19680368063D9C460026AB5F93
:103B10004E69096940684910511ACF170138C9190F
:103B200000027940401A7F280ADD76109E1BF017AC
:103B30006746013F36183F024640BF1B7F2F11DC0E
:103B4000049E029F0020305E0021795E801AC91A0F
:103B500005F01CF90B2805D92388049C23802B88A9
:103B6000029D2B800323013B1CD30F9F049E5A0010
:103B7000BA183088111C5A31029C088021886032A2
:103B80001180F0E7079D06236B43069EC918228823
:103B9000824B49007118CA52039B063B1A88A8231E
:103BA0009B00CA52049F029C3F8824881797169452
:103BB0007B4B1B681A1C9C321278012A4CD19D3316
:103BC0001B78079D9D4247DA764B1B681A1CFE3214
:103BD000128D002A40D1FF335C7B002C3CD16E4B10
:103BE000049E1B680022B25E191C90310968029F76
:103BF0004A43191C12149431189209680022BA5EC3
:103C0000D0204A4368431214059D19921A941B94BC
:103C1000A03000221818AA561AA918AB00F0B2FD5D
:103C2000079F3420D02660437E435B4D801929686E
:103C3000A030081818AA211C00F002FFA2001CAB3B
:103C40000134D050042CEBD12868A03680190A9991
:103C50001AAA01F063F85EE1059C00256557012D65
:103C600000DC58E1032D00DC3FE1079F06267E4380
:103C7000119F4A48BC19069F64003C19205A032131
:103C8000089011980430FCF7B9FA89194900A82363
:103C900079189B00E05A414ACB5A8F5A10909C46A3
:103CA000042D16D1039B049D083B0020285E0021B3
:103CB0005B5E029DC01A039BC2178018063B5040F2
:103CC00000215B5E0022AA5ED31ADA179B185340CC
:103CD00013E0049D0020285E0D9D0023EB5E029DF5
:103CE000C01A0022AA5E0C9DC1170023EB5E40188B
:103CF000D31A4840D9175B184B400799069D2A4AAA
:103D0000C0186B189B181978284A002906D011682A
:103D100056310988884208DC002105E011685831D5
:103D20000988884201DB012119701B78002B3FD1E3
:103D300012688021131C5432128852331B8800925F
:103D40004A0004F033F8154F049D061C0021695EFB
:103D5000E05F029F0B1ADD175A196A4000257D5F4C
:103D6000A827BF009446E25FAD1AEA17AD18554088
:103D700065442B1C321C05F085FE049B321C188008
:103D8000E05F029C2B1C0021615E05F07BFE029D22
:103D9000288086E0040300200C0300209A02000023
:103DA0009012002000000020120300008C1200205E
:103DB000089C109DA1B2CF1B3FB2FB0FDF197F10F3
:103DC000AAB213976746D31B1BB2049CDD0FEB18F6
:103DD0000025645F029F5B100A94139C14930020DB
:103DE0003F5E0B190A9D149C15971BB2EB1A121912
:103DF000159DDF1712B2DB19AA1A7B40D717D2190B
:103E00007A409B180024802B01DD1C1C803C1198FB
:103E100003210530FCF7F2F9844B089A1F68069DD0
:103E200089193B1C4F3349001E78691810B25D7820
:103E30007F4A129B58438B5E7343C0180A9B6B43A7
:103E4000C0183B1C4E331A78513710410890109817
:103E50003B7807B212984743A8208000095E4E4382
:103E6000BE19159F14997D437519139E59437343C9
:103E7000089F1141134115418022F8186D18231C29
:103E80000A99D20005F0FEFD049E029F3080802238
:103E9000231C0021795E281CD20005F0F3FD029C52
:103EA0002080039B099E043B0021715E0025585F22
:103EB0005E4D431A2F68DC171B1963403A22BA5E25
:103EC00005F0E0FD099E039B0B9C3080023B083C03
:103ED000188821882B683A27DA5F431ADD175B19A7
:103EE0006B4005F0CFFD208015E0039B049E083B4E
:103EF0000022B25E0027DB5F049CD3185B10238096
:103F0000039B029D063B0022AA5E00269B5F029F48
:103F1000D3185B103B80059C0023E3560E9DAB42FB
:103F20006CDD099E0023F35E002B74DD039B043BD4
:103F30000027DB5F002B6EDD179D0D9C169F0C9EEE
:103F40002580378067E0059F0022BA560E9CA2426A
:103F500030DD0399043900254A5F002A32D0069EDD
:103F60009027BF00079DF2195419A07F0130C0B2FD
:103F7000A0772E4C40B2246839342478A04202DD68
:103F8000059E33701EE0039B049F083B1B88029C28
:103F90003B80039B099D063B1B8823800B882B805D
:103FA000039B023B19880B9B083B19805368013324
:103FB000536007E0069F079C1E4D059E3A19521953
:103FC00033701370079E059F013E039C049D079666
:103FD0000B9E013F083C0E3D0E3E05970394029F49
:103FE0000D9C04950B960C9D0F9E0E3F023C023DCE
:103FF0000C3E02970D940C950F9632E50123099C17
:104000005B422380069C9025AD00079E63199B1997
:1040100000229A77D6E7069D9026B600AB195A681B
:1040200001325A60EEE721B0F0BDC0468C1200208C
:104030009A0200001203000008B5FFF7BFFB08BD9D
:10404000F0B58FB0059007910A920B930024404B76
:104050001B68DB6A9C4278DA059F2301FB18082065
:104060001B5E002B6FD0079FA300FB180327DF57B1
:1040700008979B78013F5BB206930497089F0498CA
:1040800001370997B8425EDC069E013E069B01336C
:104090009E4255DC2E4B04991B6801319A680A9F99
:1040A0005143481C80193D5C013D47D3DB6A9D426A
:1040B00044DAAC4242D0079FA300DB5F254F4000AB
:1040C0003F687F8EBC46149FC05B834236DC069FF0
:1040D0006046C91943430131149F4900C95B9B11D4
:1040E0008B422BDA099F7A43B2180132149F520097
:1040F000D25B934222DAA54202DB2B1C251C1C1C3E
:10410000059821010DAF41180A31381C042206F030
:1041100045FA059A29015118381C0A3104F096FA1B
:1041200000970A9F231C01970B9F05980297149FE5
:10413000079903972A1C04F0A7FA2C1C0236A5E75E
:10414000049F023799E7013481E70FB0F0BDC04604
:10415000040300208C120020F0B595B00C920C1CCA
:104160001290FCF7B5F9FCF7BFF9CE4B07271B6897
:104170001A7B0A97062A00D80A92CB4A11689E2217
:1041800052008A5C002A01D0C84B1B681F7AC84DB8
:104190000F970A201F5E2B68C6491A6809970A7094
:1041A0005F689A684F708A700C9F013204239200F6
:1041B000BA18CB70022051230B7103F009FD0023C4
:1041C000A21DD3770232D3777F26631DDE77E31DEE
:1041D000DE77B54B1B680893089F2623FF33FE5CF0
:1041E000002E08D12B681D685B68013D013BDBB2E6
:1041F000EDB20B9303E00E270B97102501260898CC
:104200007823FF33C75C76B2A649A9486DB2AA4AA3
:10421000AA4B1396012F00D0B1E0096812681B6801
:1042200000270668039506910D920E930597049753
:10423000039F1398874200DA58E10B9F7DB2039FDA
:104240007F000797039F002D00DA95E0B0680137E3
:104250004743069801377F190C990278BB005B58D9
:10426000002A0CD031680D9A694303988C461118C6
:104270006246885C43430E98006943431B130399CD
:1042800072684A431A99AA1892005058089A26212F
:10429000000CFF31C01A535C002B04D00523584397
:1042A0000621FBF755FF129A7F00B852069F00289F
:1042B0004EDB0E23FB56984212DB2168C31ACB1843
:1042C000236063690F210133636179560E22BA5668
:1042D0006368884201DC821A00E08A1A9B186360D6
:1042E000E268904205DDEFB21197039FE060FFB2F4
:1042F00010970A9FB8421DDB231C08331F229A56D1
:10430000AA4200DADD77E31D1F229A56AA4200DD99
:10431000DD77A31D1F229A56039FBA4200DADF778A
:10432000631D1F229A56039FBA4200DDDF77059F67
:10433000013705971C9F6A00B95A83B25918B952C0
:104340001B9F07997A5A9B187B52049F3F1810E0D5
:104350001023FB56984206DCA168C31ACB18A36051
:10436000A3690133A3612269904200DA2061049FAE
:104370003F1A0497013D65E7013F039758E700683E
:10438000096812681B680027069003910D920E932E
:1043900005970497139FBD4200DAA7E00B9F7EB2FA
:1043A0006F000797002E00DA9EE006986F1C806869
:1043B0000C9947430137039ABF19BB005B58069815
:1043C00011784268002909D00D998819111C694398
:1043D000405C43430E98006943431B136A431A9998
:1043E000B21892005058089A2621000CFF31C01ACA
:1043F000535C002B04D0052358430621FBF7A8FE8D
:10440000129A7F00B852039F002859DB0E23FB56F7
:10441000984212DB2168C31ACB18236063690F210D
:104420000133636179560E226368BA56884201DC13
:10443000821A00E08A1A9B186360E268904204DDE9
:10444000F7B21197EFB21097E0600A9FB8421BDBFA
:10445000231C08331F229A56B24200DADE77E31D8E
:104460001F229A56B24200DDDE77A31D1F229A5604
:10447000AA4200DADD77631D1F229A56AA4200DDA8
:10448000DD77059F013705971C9F7200B95A83B2EB
:104490005918B9521B9F07997A5A9B187B52049F4F
:1044A0003F181EE08012002000000020881200202B
:1044B00004030020C006002084120020080300200E
:1044C0001023FB56984206DCA168C31ACB18A360E0
:1044D000A3690133A3612269904200DA2061049F3D
:1044E0003F1A0497013E5DE7013D53E71B4B0498DB
:1044F0001B680125D968FBF72BFE19497C235B4219
:10450000221CCB70E06176231C32281C0B714D708D
:1045100003F05EFB059FA21D27621F21631D5156FC
:104520001F229A560F4B1B68914201DB1D7301E05D
:1045300000221A73119F231C28331F70109F012023
:104540005F70E1680F9FB94205DA2369099FD80FB0
:10455000FA179F425041C0B215B0F0BD04030020CD
:104560008C000020080300200B4B09681A68782390
:10457000FF33D35C094A1268507B48438011002BFB
:1045800001D1137B04E0012B05D1054B1B68DB79BE
:10459000984200DA181C70470000002080120020AA
:1045A00088120020F0B597B01E1C5D4F1CAB1B7825
:1045B0000A923A6806900C1C0B9303215156202056
:1045C000411A022010564900091A4910554DC9B226
:1045D00005912B68907A19781B790090D27A05980A
:1045E0000192029072681D9805F0E4FD38682B680E
:1045F0007268067A19791B780096407A059E0190B8
:1046000002961E9805F0D6FD002124220DA806F082
:1046100007F8A3687F22180A190C00260C9322724F
:10462000A27240B25AB249B21B162F686672E67285
:1046300005900791089304960598824251DC1D9DD0
:104640005300EB180993079B089E501CB34246DCAD
:10465000B9680A9D4143591801314E00755F5900F0
:10466000AC461E9D664669180989761A0999B446B2
:104670000E896546A91B0B9EB14213DD0B256557BC
:104680009D4200DAE3720A2565579D4200DDA37260
:1046900009256557954200DA6272082565579542EB
:1046A00000DD2272CD1F072D08D80DADED5C01266F
:1046B000AC46B44466460DADEE5401E0002904DD7D
:1046C000049D8D4202DA049100E00021BE68069D3F
:1046D000704318180130800041510133B4E7021CC7
:1046E000AAE70CA80DA9069A00F076FB0D4E0E491C
:1046F0003368049D5A68256018684A709A68069D58
:104700008A707C2301325B4292000870CB70AA1839
:10471000832305200B7103F05BFA17B0F0BDC04690
:104720009412002004030020C0060020114B70B535
:10473000444201209C421BDC201C0F49FBF708FD72
:104740000D49421C0D1C5543661BF317F6185E40BD
:104750000A4B4000C05A52007043094EAD19641B09
:10476000E51764196C40D55A6C430019FBF7F0FC4F
:1047700070BDC0466F11010010270000A6A6000002
:10478000F0D8FFFFF0B50F1CAC49D3B00E68049011
:104790009E36012A25D11C685868049B0021FA2204
:1047A0001A63013100221C60D8605A601A619A6055
:1047B0005A619A61DA611A625A629A62DA62343331
:1047C0000429ECD1049DC8232A1CDB000432AB6110
:1047D000EB64AB65D3678832136093609362536375
:1047E000D3630024A20000239219181C1A255D43EC
:1047F00004994D192D6BD15A023369434018082B87
:10480000F4D1FA218900FBF755FC38530234082C07
:10481000E8D10AA80021102205F002FF0025342368
:104820006B4304980EA9C3181B6B00240693EB007E
:10483000F31805932B0159180791059A069B105BF5
:10484000395B5843FBF736FC079963002822C850B0
:10485000D218694652582833101802345850082C80
:10486000EBD10135042DDAD11EA80021D0220EADE6
:10487000002605F0D5FE20AC079506960023049A85
:104880001E1C181C079F1568F95810334D4340191A
:10489000D568343269437618402BF3D1069F6946B8
:1048A000BB0028335D58271C291CFBF751FC083F2F
:1048B0003860291C301CFBF74BFC069E6060002E04
:1048C00035D00023049A1E1C181C079FF9585768FE
:1048D00010334F43C0191769343279437618402B8F
:1048E000F3D1291CFBF734FC271F3860291C301C2E
:1048F000FBF72EFC069EA060012E18D00023049A20
:104900001E1C181C079FF958976810334F43C01995
:104910005769343279437618402BF3D1291CFBF7C1
:1049200017FC291C2060301CFBF712FCE060069D80
:10493000079E01350436069534340796042D9DD123
:1049400026AC0027BA000EABD01801920023049ABF
:104950009C4606930793059308930993C15895695C
:10496000069E4D43AC44D56910334D437619156A04
:1049700006964D43079E7619556A07964D43059E48
:104980007619956A05964D43089E7619D56A08965C
:104990006943099E343276180996402BDED101997D
:1049A0000AA80D586046291CFBF7D2FB261C083EBE
:1049B0003060002F1BD0291C0698FBF7C9FB261F6F
:1049C0003060291C0598FBF7C3FB6060012F0ED0F7
:1049D000291C0798FBF7BCFB291C20600898FBF7F3
:1049E000B7FB291CA0600998FBF7B2FBE060013718
:1049F0003434042FA6D1049B00211EAA8D585218CE
:104A000056689768D0681D605E60156956699F603A
:104A10009769D8601D615E619F61D069156A566AA9
:104A2000976AD26A3431D8611D625E629F62DA622F
:104A30003433D029E1D153B0F0BDC04690120020EC
:104A4000F0B5B44B91B0041C94461B68012912D0F8
:104A500007DC00291BD1BE339F881D780297DB88B5
:104A600014E002290DD0032911D1BE331F8ADD784D
:104A700002975B8A0AE0BE331F895D7802975B89E3
:104A800004E0BE339F899D780297DB890693012D50
:104A900061D0002D4DD0022D7BD1A76863682068BE
:104AA0001911DB1908977A110A93676923690918A4
:104AB000E0688A181911DB1909180D920B937A1105
:104AC000A36A8A180C92DE0FE26AF6187110206A47
:104AD000D60FB61876100997C718BF190197A069A5
:104AE000E7693F18206A0397C70F3F1803987F10A4
:104AF000C719E0693F18606A3F1801987F1803974B
:104B0000C70F3F1803987F10C7190497606AE769B9
:104B10003F187818216A676A4018F918C018C91830
:104B200080199B18891803900E910793029BD61841
:104B30003BE02768A0690D97E7682E1C0C97029F41
:104B400007953F1804970E950195039509950B95C8
:104B500008950A9529E0676820683B110A9727693C
:104B60001B18E0683A111218E0690C92A269616A98
:104B70000D930B97029B4700BF1800267F18401823
:104B8000C918049703900E91079601960996089606
:104B90000BE0002607960E9601960396049609965A
:104BA0000B960C9608960A960D9667463F680D98E8
:104BB0003F1A60464368029704980C9FDB1BC71797
:104BC0003F0F05933F18069B3F11FF18391C8001CA
:104BD000FBF7BEFA039906908801391CFBF7B8FA77
:104BE000019A0F90391C9001FBF7B2FA0D9B0699C0
:104BF0009A02029B4B43D3189B1223600A9B0F9986
:104C00009A01029B4B43D3181B019B126360089BC4
:104C10000C999A01029B4343D3181B019B12A3607A
:104C20008A02059B06994B43D2189212E2600B9AB6
:104C30000F999301059A4A439B181B019B1223610C
:104C4000099B06999A01059B4343D3181B019B12AC
:104C500063618023049ADB005B1A5A43D117890DE4
:104C60008A189212A261002D05D1E5612562656264
:104C7000A562E56239E0039A5A43D117890D8A1873
:104C80009212E2610F9A03995242514304920E9A92
:104C90008C469202111C61440392CA17920D9446ED
:104CA000614489126162022D1BD10199019A4B4323
:104CB000D917890DCB189B122362049B07995A437D
:104CC0008B02D318DA17920DD318019AB60250430B
:104CD000301AC617B60D30189B128012A362E0621C
:104CE00003E000232362A362E3620298059B404332
:104CF0005B43C0186423391C5843FBF729FA401062
:104D00004042FFF713FD044B391C5843FBF720FAD0
:104D100011B0F0BD9012002010270000F7B500245C
:104D2000051C0191171C0093261C009962003B5B37
:104D30008858FA2158431A236343EB1818638900F3
:104D4000FBF7B8F902348619082CEED100242F198C
:104D5000386B311CFBF7AEF9002801D0386301E055
:104D600001233B633434D02CF1D10024201C261CB9
:104D7000221C2B6B2968013259430818E9689E19D7
:104D8000594334350C19042AF3D1311CFBF7E0F9EF
:104D9000311C051C201CFBF7DBF9041C002D01D085
:104DA000002806D10A490020FA23021C0B7102F0E8
:104DB0000FFF084B1B681A1C98329C3312681B6843
:104DC00055435C43019A2D14241415805480F7BD7B
:104DD000C70600200C030020F0B5574B93B000AF7E
:104DE000B9621968161C4A6838640868131C434382
:104DF0005B000833DB08DB006C46E41AA546F86369
:104E00003B6C68467863DB783C6C5BB27B62A47871
:104E1000550064B294463C63FD62221C786A82426B
:104E200058DCB86A835C082B52D93C6C0023E356EB
:104E3000604658430125655710187C6B40003D6261
:104E400020180025F861BD633D6AAB4240DC0624B2
:104E5000002B09D0886858438018800034583018D7
:104E6000456880686419241888680133786158435C
:104E700080188000355830186419F860FD6B806820
:104E8000013DB86020185C1EAC4211D07C695D1CED
:104E90006543AD18AD00BD61755940197864B869B6
:104EA0007C6C35186868AD6824187C64641900E06F
:104EB000841DF86845680320684304190D204443A5
:104EC000FD69B86B24122C52FC6A0019B863BBE769
:104ED0000132A3E76246D3079A1A3B6BBA633D6C73
:104EE0000322AA56934223DCBC6AE25C082A1DD93D
:104EF0003D6C0022AA5664465443B86B7D6B24185F
:104F0000E41864002C197C640020FD6A3C6C401994
:104F100001256557AA4209DC8D68013255437C6C36
:104F20005D190135245AAD00AC51EEE70133D6E7E7
:104F3000BD4613B0F0BDC04604030020F0B5324FAB
:104F400085B001903868A6230A1C5B0014320290D9
:104F5000C65C039200230A1C022E2BD14E24029D14
:104F6000FF342C5D344225D01478012C07D1087D04
:104F7000201AC5174019684007280DD108E0052CF4
:104F800012D1087D241AE51764196C40012C07D151
:104F9000541A0E2C12DD13E05078002806D00DE0D4
:104FA0005478002C0CD009E0022C07D0033C012CD3
:104FB00006D803E015780C7DA54201D00133DBB2A1
:104FC000039801328242C7D10022022B18D8019DDA
:104FD00001232B700B7D591EC9B2062901D80B4A3B
:104FE000525C3868A6214900415C022908D14E2450
:104FF000FF34005D084203D0063B022B00D81A2282
:10500000101C05B0F0BDC04600000020B6A6000090
:10501000014B18607047C04674120020014B18689D
:105020007047C04674120020014B18607047C0469C
:1050300070120020014B18687047C04670120020A3
:10504000014B18607047C0466C120020014B186875
:105050007047C0466C120020014B18687047C0466C
:1050600084000020F7B50E4B19688B795F1E15D3AD
:105070004A79013A10D34D79561CAC1C0194012495
:105080002540019C65195D437419064DA4006419FF
:105090002568C5402560ECE73B1CE7E7F7BDC04647
:1050A00074120020004000508D23013B002B01D0E2
:1050B000C046FAE7044B10221B78DBB21807C00F7A
:1050C000134018437047C0462B0000500F4BF7B5F4
:1050D00018261E700E4BA0271E70FFF7E5FFFF0578
:1050E0000B4B01AC00252C3760701D703E70FFF734
:1050F000DBFF064B20703D701D7023786278181C12
:105100005040400013400343D8B2FEBD2A00005077
:105110002D000050A022D205131C2A331021197033
:105120002B3210780022C006C00F1A7070470000A2
:1051300010B50D4B00201B78AA2B12D10B4B1C78FD
:105140000B4B64B218780B4B40B219780A4B2018FD
:105150001A780A4B49B21B7840188018C01A43428B
:105160005841C0B210BDC0465000020051000200BC
:1051700052000200530002005400020055000200D9
:105180008023DB020022188059809A80C046024B9F
:10519000188880B27047C04606000400154BC02234
:1051A000920098581449014099509958FF20814322
:1051B0004020014399509858104901408020000434
:1051C00001439950985880210002000A09060143C2
:1051D000995002221A6001221A60082104221A60E2
:1051E0001960FC3300215960054B19690A431A61A3
:1051F0007047C04600E100E0FF00FFFFFFFF00FF37
:1052000000ED00E013B5094A042413780021DBB255
:105210001C4301910198F421FF31884205DC137091
:10522000C046147001990131F3E713BD0D00005021
:1052300082B00022019201AB55221A7039225242EB
:105240009A700122DA70019AA023DB059A6102B0FC
:10525000704700000122A023DB051040020603492D
:1052600098690840104398617047C046FFFFFFFEF1
:1052700082B00022019201220A40891801303F22A7
:1052800001AB1040C9B21870481C023102408900BD
:10529000D9705A70019AA023DB05DA61196A024AB3
:1052A0000A401A6202B07047FFCFFFFF0002064BB0
:1052B000000A0138002258609A6005221A60C04630
:1052C0001A68D103FCD5704710E000E0F0B5534FE9
:1052D00085B03B681A1C503215780232196D12786D
:1052E00053331E780F231407994312092D07019297
:1052F0002D0F0B1C80222B4352001343484A039569
:10530000484D1340484A2B4048491340240F0B4056
:105310000199220413430A0545493607360F0B400D
:10532000009613433206434E029433401343424ADD
:10533000A024E4051340E360FFF764FF3B68E268E4
:1053400051331B781540DB069B0FDB021D43E560E4
:10535000E26880239B001343E360E26880239B01A3
:105360001343E360029C039DFFF7E2FE002813D085
:10537000324F882039781E34C9B2FAF7E9FE3978FD
:105380004443C9B28820FAF7E3FE0F3545431E3C7B
:1053900000230F3D9C4203DB231E0F2B00DD0F2358
:1053A0000F22954200DD151CA024E4051F491A4078
:1053B000E36812040B401343E360EB43E268DB173E
:1053C0001D400F239A431D401543E560E368F0221A
:1053D000934380221343E360E368154A184813405F
:1053E000E360E3683340E360FFF760FFE268802337
:1053F0005B051343E3600099E2680B0616401E4309
:10540000E6601048FFF752FF019B09491A05E3685F
:105410000B401343E36005B0F0BDC046701200209E
:10542000FFF9FFFFFFE7FFFFFFDFFFFFFFFFF0FFD9
:10543000FFFF0FFFFFFFFFF0FFFFFFEF5400020031
:10544000FF0F0000FF6F0000064A074B1068822222
:1054500092008258012019789040021C0A43D2B26F
:105460001A70704784000020290000500549064B3F
:1054700008688221890041581A78012088408243B7
:105480001A7070478400002029000050054B1878DE
:10549000054B1A6882239B00D358184101231840FA
:1054A0007047C0462900005084000020044B82B0A1
:1054B000019001AA188092789A7002B07047C04695
:1054C0002400005007B500F005FE064B019001AA2C
:1054D000188092789A70044B00221A70034B0122B4
:1054E000DA7707BD24000050581200200800005051
:1054F000034B00221A70034B0122DA777047C04633
:10550000581200200800005072B6084B1B5C002B9C
:1055100003D1C04662B630BFF6E762B6A023DB0512
:105520009968034A0A409A607047C04658120020A2
:10553000FFFFF9FF72B6074B1B5C002B02D1C04680
:1055400062B6F7E762B6A023DB059968024A0A4013
:105550009A60704758120020FFFFF9FFA023DB0577
:105560005A680121120E58689143034A0906024005
:105570000A435A607047C046FFFFFFFE08B5074B5D
:105580001B681A1C5732127858331B7852000132AC
:1055900050439940FAF7DCFD08BDC0467012002068
:1055A00008B5044B1B685A33197849000131FFF7DD
:1055B000E5FF08BD7012002008B5A0230120DB051F
:1055C0005870FFF7A1FFFFF7C9FF08BDF7B5A02688
:1055D000041CF605042809D0052811D16F4B1B685F
:1055E0001A1CE4321268E833009206E06B4B1B6829
:1055F0001A1CEC321268F03300921B68736148E0A9
:10560000674F3B68586C9B6C00907361FAF772FFB0
:1056100028230190FF33C35C002B16D004F09AFFBF
:1056200004F0C2FE81787F231940890472698C4698
:105630005C490A4061460A437261C278134072694C
:105640005B06D201D209134373619623019A5B0072
:10565000D35C012B10D1544B1B78002B0CD13B6831
:105660007F204A331988514BC9051A78490E5118C1
:10567000A023DB05014006E03B684A331988A023DC
:10568000C905DB05490E5A694648890402400A43A8
:105690005A61A0230099DB0519611E691F231E4072
:1056A000FFF746FD00280AD0414B882019780436C0
:1056B000C9B2FAF74DFD46430023043E03D4331E1E
:1056C0001F2B00DD1F23A022D205108A1F210B40B3
:1056D000884303431382032C35D005DC012C2ED0E4
:1056E00013DC002C11D031E0052C0AD005DB062C90
:1056F0002CD12A4B1D68FA3528E0284B1D68F4355B
:1057000024E0264B1D68F73520E0FAF7F3FE031C72
:10571000FF335B7B002B03D0204B1D68533515E016
:105720002823FF33C35C002B05D004F013FF04F0E3
:105730003BFE051D0AE01A4B1D68563506E0184B66
:105740001D68593502E0164B1D685C35A023DB054A
:10575000596928783F221040914301435961687884
:105760001F215D6908401349C00229400143596166
:105770001149640009680C19211C9A31087859688C
:1057800010409143014359609B34217858680A4086
:1057900011020A4A02400A435A60F7BD74120020FF
:1057A00070120020FFFF03FEC4070020DC0200206F
:1057B00054000200FF07FFFF84000020FFC0FFFF2E
:1057C0001D4BF7B51C681D4B1B6859331B785B06D6
:1057D0009B0E0193231C49331A789300C31800933E
:1057E0000023591E9B18002B24D0A3185B184A33A2
:1057F0001B788025E3185E78A023DB055F68ED0346
:105800003D435D605F680198BC460D4F05046046EE
:1058100007402F43B606B60E5F60C04624367600BA
:10582000F65A009F8D007E515E68064D35405D60E2
:105830000B1CD6E7F7BDC046840000207012002084
:10584000FFFFC0FFFFFFBFFF70B5502444430D4E64
:1058500069343368FF341C19201CFFF7B1FF33682B
:1058600049331D786E1CB600AD00651976420024E0
:10587000043CB44205D028590121FFF77FFE28518E
:10588000F6E770BD84000020044B00225A70A0236C
:10589000DB055A7001221A707047C046581200206A
:1058A000A023DB059968064A0A40802189020A4341
:1058B0009A60044A0021917001229A707047C04694
:1058C000FFFFF9FF58120020024B1B68C033186815
:1058D0007047C04684000020024B1B68C03318602C
:1058E0007047C04684000020A023DB059868C0B242
:1058F000704730B5A023DB059B68DBB283420ED036
:1059000001DA013300E0013BA022D2059568FF21B6
:105910001C1C8D430C40291C21439160EEE730BDD7
:1059200008B50020FFF7F0FD08BD0000034B1B6821
:1059300057331878400001307047C046701200207D
:10594000024B1B68583318787047C046701200200D
:105950000048704700100050004870470020005079
:105960000048704700400050084B01201B685B79DD
:105970009A1C0340D318064A1268953210780138F1
:105980005843044B8000C0187047C0467412002072
:105990008400002000400050074B01201B685B7909
:1059A0009A1C0340D318054A126891321078584364
:1059B000034B8000C0187047741200208400002040
:1059C00004400050F0B585B000AFFAF793FD962380
:1059D0005B00C35C5F4A5B00C318FE3311885A89C1
:1059E0008A185A815C4B1B681A78BB6053B2042B2F
:1059F00027D15A4B1C68231CF6331B78FB60FFF73A
:105A0000B3FF0222561EB44600D2A0E06379013BE8
:105A100015D365790121AE1C0D4071195143013137
:105A2000CD18AD007D60BD68EE185E3636787D68B5
:105A3000891989000958FE68F1402950E7E7624654
:105A4000E0E7052B21D1454B1C68231CF9331B785B
:105A5000BB60FFF789FF0423591EF96077D3627991
:105A6000013A10D36179551C7D6001258E1C2940B7
:105A7000711859437D68BE686D18AD0045192968D5
:105A8000F1402960ECE7FB68E6E7002A45D0022BED
:105A90000BD1FF30437B002B03D0304B1B685533B9
:105AA00038E02F4B1B68583334E0032B03D12C4BC9
:105AB0001B685E332EE0012B27D16D467D60FFF71A
:105AC0006BFF264B69461B68061C5C79A5002B1CE6
:105AD0000A33DB08DB00C91A8D466B46FB60013CCC
