:100000004808002091BB0108618B0108758B01082D
:10001000898B01089D8B0108B18B0108000000004D
:10002000000000000000000000000000C58B010877
:10003000D98B010800000000CD570008BDBB0108A6
:10004000C1BB0108C5BB0108C9BB010825C900081F
:10005000CDBB0108E7920108478E0108D1BB01081A
:100060003190010813910108D5BB0108D9BB0108E3
:10007000DDBB0108E1BB0108E5BB0108E9BB0108E4
:10008000EDBB0108F1BB0108F5BB01080000000051
:10009000000000000000000000000000F9BB0108A3
:1000A000FDBB01089970010801BC010805BC0108ED
:1000B00000000000000000000000000009BC010872
:1000C0000DBC010811BC010815BC010819BC0108D0
:1000D0001DBC010821BC010825BC0108000000006E
:1000E00029BC0108EF910108000000000000000099
:1000F0000000000000000000000000002DBC01080E
:10010000000000000000000031BC010800000000F9
:10011000000000000000000035BC010800000000E5
:1001200039BC01083DBC010841BC010845BC0108BF
:1001300049BC0108000000000000000000000000B1
:1001400000000000000000000000000000000000AF
:10015000437001084DBC010851BC010855BC0108A1
:10016000000000000000000000000000000000008F
:10017000000000000000000000000000000000007F
:1001800059BC01085DBC010800000000000000002F
:100190000000000061BC0108000000000000000039
:1001A000000000000000000000000000000000004F
:1001B00000000000000000000000000065BC010815
:1001C00069BC01086DBC010870B5002240F6CC0185
:1001D000DFF8380C01F05EFCDFF8344C002210210F
:1001E00004F1100001F056FCDFF82C5C002068617F
:1001F000A861E861DFF8246CB063F06330642862C2
:100200007064B0646862A862E8620120286300201C
:10021000F06430654FF0FF306863A8630020E86346
:1002200070652864B06530667066B066F066B0626E
:1002300002462821304601F02DFC42F21070308138
:10024000708100207060306002460C21204601F071
:1002500021FCDFF8CC0B6060DFF8B00920600120E2
:1002600020720020287268646881E860F06220666D
:10027000306760663086286568657067A865E865E0
:100280006866286601202867E866A8660020E86797
:10029000A8676867062070860020B086F067B067A0
:1002A000DFF8DC03A8640020E8640120288296209F
:1002B00068820620F0860C20A0810020F0650246AE
:1002C000402104F1200001F0E5FB00220621284630
:1002D000BDE8704001F0DEBB10B584B0DFF8304BF4
:1002E0000C22214600A801F013FCFFF76DFF0C2241
:1002F00000A9204601F00CFC1FBD00002DE9F843C9
:100300002DED0A8B00242546DFF80C6B96ED170ABD
:10031000D6ED100AC6ED170ADFF8007B97ED158AB7
:1003200086ED108A96ED0F1AB8EE411ADFEDD41A59
:10033000C1EE818AC7ED158A716BD6F82480A8EBCF
:100340000100FA30FA22B0FBF2F2FA2303FB1200AA
:1003500080B2002800F04A814C2880F27F80326B06
:10036000012A7BD0D7F85090B9F1040F20D3F4EED6
:10037000480AF1EE10FA1BD5B4EE688AF1EE10FAD5
:1003800016D59FEDC01A20EE811AB4EE681AF1EE70
:1003900010FA0DD59FEDBC1AF4EE418AF1EE10FA79
:1003A00006DB87ED158AC6ED100A86ED170A2EE1E9
:1003B00097ED0E9A87ED0F9AD7ED119AC7ED129A25
:1003C000024600EE102AB8EE400AD6ED070AC0EE4B
:1003D000800A96ED081A81EE001A2246BA637A6402
:1003E0001FE0491C89B2FA2900D12146DFF81C3AE6
:1003F00003EB8103D3ED0E1A71EEE01AD3F820342B
:1004000002EE103A32EE412AD7ED0E2A41EEA12A31
:10041000C7ED0E2AD7ED111A42EE021AC7ED111AD6
:10042000521C92B28242DCDBD7ED0E0A80EE80AA2B
:1004300087ED0EAAD7ED110A80EE80BA87ED11BACA
:10044000D6ED16AA96ED140AD6ED150A70EE60BA2E
:10045000C6ED16BA00F04EFC012803D12046F885FF
:100460003886C3E0B9F1000F0BD1F88D052802DB07
:1004700005462046F885388E052802DB45192046BA
:10048000388619FA85F0002824D1B6EE00CA3BEE72
:10049000290A20EE0C0ADFED7D0AB4EE600AF1EEC7
:1004A00010FA11D43AEE090A20EE0C0ADFED780AB0
:1004B000B4EE600AF1EE10FA06D4B3EE040AF4EEDC
:1004C00040BAF1EE10FA05D5F88D401CF885C6F853
:1004D00038808BE0F88D002802D045192046F88539
:1004E00019FA85F0002814D1B7EE000AF4EE408A1C
:1004F000F1EE10FA7AD49FED670AF4EE408AF1EE3D
:1005000010FA03DB388E401C38866FE020463886B0
:1005100003E0388E451920463886284680B200F020
:1005200081FC012808D187ED158AC7ED119AC6ED27
:1005300016AA87ED0E9A59E09FED570AF4EE408A0D
:10054000F1EE10FA02DBDFF8EC0B78652046F88557
:10055000B9F1000F08D1786DB86587ED10AAC7ED25
:100560001DBA00F067FB36E0B6EE00CA00F062FB91
:10057000012816D197ED150AF0EE000A20EE200AA8
:1005800087ED150A6AEE0C0AC7ED0E0A2BEE0C1A5F
:1005900087ED111AC7ED0F0A87ED121A86ED100AC2
:1005A0006D1C97ED150AD6ED100A30EE200A20EEEC
:1005B0000C0A87ED160A97ED0E0AD7ED0F0A30EEFA
:1005C000200A20EE0C0A87ED100A3AEEAB0A20EE64
:1005D0000C0A87ED1D0A97ED160A284680B200F036
:1005E0005DF800F019F80446C6F83880C6F8348083
:1005F0000020F063F0613062306302461021DFF8C2
:10060000380B01F047FA1E48B0640020F064204621
:10061000BDEC0A8BBDE8F28338B50025DFF8FC4756
:100620000120E06700F09EFC2060206D618E884212
:1006300014D3E06CE060208DA080608DE080E06DE0
:100640006061206EA061606EE061A06E2062E06E6D
:1006500060620120A0672846E0670125284632BD78
:10066000DFF8B807C168C16400210165416081629B
:10067000C1694166416AC1660021C16770470000D7
:1006800000007A446666E63F0100404000001643E1
:100690000000A042666616400100A0402DE9F84F18
:1006A0002DED048B82B0044600239E461846DFF8E9
:1006B0006C572E6D06F10F0101F00F01F21D02F0D3
:1006C00007020092DFF8487707EB810282ED080A03
:1006D000002C18D0024614E0A1F1010CACEB020C86
:1006E0000CF1100C4FEAEC080CEB18784FEA2818C4
:1006F000BCEB081C03D407EB8C0C8CED080A521CD5
:1007000012B2A242E8DB102E02D2314609B200E05A
:100710000F219FED9D8ADFED9C0A9FED9C1A0246FA
:100720001BE007EB810CDCED081AF5EE401AF1EE48
:1007300010FA10DD38EE218AF4EE610AF1EE10FABB
:1007400001D5F0EE610AF4EE411AF1EE10FA01D58E
:10075000B0EE611A521C491E09B20029E1D512B24D
:10076000114603290BDB78EE600A70EEC10A891E80
:1007700001EE101AB8EEC11A80EE818A07E0012955
:1007800005DB00EE902AF8EEE00A88EE208AB5EE4E
:10079000408AF1EE10FA01D0002A01D1B0EE408A71
:1007A00085ED178A9FED7A0AB4EE408AF1EE10FAD1
:1007B00002D5B0EE408A08E09FED760AB4EE408A9A
:1007C000F1EE10FA01DBB1EE028AB0EE040AB4EEEB
:1007D000408AF1EE10FA08D495ED1C0AF0EE080AF2
:1007E000B4EE600AF1EE10FA02D50321298501E08A
:1007F00004212985D5F84C8008F0070ADFF80C960B
:100800000AEB090C298D8CF86418002C0BD0A8F188
:10081000010202F007024A4408F0070BCB449BF8A0
:1008200064B882F864B808220EE0BBF1040F00D16E
:10083000401CAAF1010A0FFA8AFABAF1000F01D599
:100840000AF1080A521E12B2012A16DB0FFA8AFABE
:100850000AEB090B9BF964B8BBF1030F02D10EF14F
:10086000010E03E0BBF1040F00D15B1C062AE0DBA4
:10087000BBF1030FD9D1401EDBE79BB21FFA8EFEFE
:10088000734507D39E4502D2042068850DE000B26F
:10089000002802D50320688507E0012802DB042038
:1008A000688502E09CF96408688549B2B0EE480AA0
:1008B000384600F01BF9DFED8C0AB4EE600AF1EE69
:1008C00010FA01D5B0EE600A85ED180A204600F155
:1008D000010A00EE90AAF8EEE08AD5ED190A48EE7A
:1008E000800AC5ED190A9FEDC99A20EE080A20EE8C
:1008F000090A009909EB810101F6080181ED000A5E
:10090000002C16D0002212E00099491E891A0831E5
:100910008B1001EB5373DB10B1EBC30105D409EB72
:10092000810101F6080181ED000A521C12B28242D7
:10093000EADB082E02D2304600B203E0072001E0D5
:10094000401E00B20028FBD585ED1A0A698D49B218
:10095000384600F043F968EE090AB7EE001AC1EE16
:10096000200A20EE800AD5ED1B0A48EE800AC5ED6C
:100970001B0A0AEB0800E8640AEB0600286502B0CF
:10098000BDEC048BBDE8F18F000000000000C84200
:100990006666A63F0100904049B2032944D1DFEDCD
:1009A0009C0AB4EE600AF1EE10FA01DBB0EE600AC8
:1009B0009FED981ADFED980A40EE010A90ED011ABA
:1009C0009FED960AB4EE401AF1EE10FA43DADFED2D
:1009D000941AB4EE611AF1EE10FA74DBB4EE401A18
:1009E000F1EE10FA6FD59FED8F0A31EE000ADFEDC0
:1009F0008E1A60EE211A9FED8D0A9FED8D2A01EE71
:100A0000002A22EE200A20EE210A9FEDB22ADFED15
:100A1000B22A41EE022A62EEA00AB7EE001A31EEC7
:100A2000611A00EE810A56E0DFEDAC0A60EE200AA2
:100A300060EE800A9FEDAA1A40EE410A9FEDA90AD6
:100A400070EE800A90ED011A9FED740AB4EE401A20
:100A5000F1EE10FA0ADB90ED010A9FED741ADFED5A
:100A6000741A40EE011A21EEA00A34E0DFED6C1A90
:100A7000B4EE611AF1EE10FA25DBB4EE401AF1EE95
:100A800010FA20D59FED670A31EE000ADFED661AF5
:100A900060EE211A9FED650A9FED652A01EE002A9E
:100AA00022EE200A20EE210A9FED8A2ADFED8A2A13
:100AB00041EE022A62EEA00AB7EE001A31EE611A88
:100AC00000EE810A07E090ED010A20EE800ADFEDDA
:100AD000860A20EE200A007A022803D1DFEDC40A3C
:100AE00020EE200A70470000CDCC4C3E10B52DED15
:100AF000028BB0EE408A0C46DFED7C8A49B2FFF7EC
:100B00004BFF64B2042C31D1DFED790AB4EE608A78
:100B1000F1EE10FA16DBB1EE021AB4EE418AF1EEF4
:100B200010FA0FD5DFEDB30A78EE200AB1EE041A01
:100B300060EE810AFCEEE00A10EE900AC01D08EE9D
:100B4000900A3DE0B4EE608AF1EE10FA03D507207A
:100B500008EE900A34E0F1EE020AB4EE608AF1EE9B
:100B600010FA2DDB122008EE900A29E0F7EE080AB1
:100B7000B4EE608AF1EE10FA11DBDFED9F0AB4EEFD
:100B8000608AF1EE10FA0AD5FFEE080A78EE200A24
:100B9000B1EE041A60EE810AFCEEE08A10E0F7EE96
:100BA000080AB4EE608AF1EE10FA09D4DFED920A79
:100BB000B4EE608AF1EE10FA02DB062008EE900A2D
:100BC000DFF86C0D18EE901A00EB8100D0ED000AF2
:100BD00020EE200ABDEC028B10BD0000F0EE0C0AE6
:100BE00049B2042904D19FED851A40EE010A03E0C1
:100BF0009FED831A40EE010A9FEDD80A20EE800A8D
:100C0000D0ED000A20EE200A70470000000070427C
:100C10009A9919406ADEF13D8638163F00002A4352
:100C200000001643000016C3CDCC4C3D4260E53AAF
:100C30006666263F0020794991ED150AF7EE040A11
:100C4000B4EE600AF1EE10FA43DA8A8D042A40DA33
:100C5000D1ED160A9FED6B1A60EE810AB4EE600AC0
:100C6000F1EE10FA03D5022A01DB012011E06849F8
:100C700091ED070ADFED640AB4EE600AF1EE10FAB6
:100C800007DBDFED640AB4EE600AF1EE10FA00D57E
:100C9000012001281DD1604991ED120AD1ED130AFE
:100CA00070EEC00A9FEDAE1AF4EE410AF1EE10FAB2
:100CB00007DBF7EE080AB4EE600AF1EE10FA00D591
:100CC0000020DFEDB50AB4EE600AF1EE10FA00D5AF
:100CD0000020704752491D3BB81E053F2575C23E96
:100CE0007593E83F24975340C1C0C03B000000000B
:100CF000666606400021494A538D032B1BDA92EDAC
:100D0000150ADFEDA60AB4EE600AF1EE10FA12DB66
:100D100092ED0E0AF2EE040AB4EE600AF1EE10FA59
:100D200009D592ED110ADFED9E0AB4EE600AF1EEEC
:100D300010FA00D5012192ED110AF6EE000A92EDAB
:100D4000121A30EE011A21EE201AF3EE0E1AB4EE4A
:100D5000611AF1EE10FA1CD492ED0E1AD2ED0F1AB0
:100D600071EE211A61EEA01AB2EE042AF4EE421AD4
:100D7000F1EE10FA0DD4F3EE041AB4EE610AF1EEBE
:100D800010FA06D4B1EE040AB4EE401AF1EE10FAED
:100D900000D5012192ED150A9FED821AB4EE410AA9
:100DA000F1EE10FA22DB1A4A92ED060A92ED071ACA
:100DB00080EE010A9FEDA61AB4EE410AF1EE10FA98
:100DC00014DB00EE100AB8EE400A20EE200AD2ED45
:100DD000040AF4EE400AF1EE10FA07D5D2ED050A46
:100DE000F4EE400AF1EE10FA00D5012108467047F2
:100DF0003333733F666606C09A993940CDCC4C3E7A
:100E0000CDCCCC3D3333333F01002042244400207D
:100E1000B81B00200000C842146F0020CC1A00202C
:100E200000002F430021DFF8142C136D13FA80F01B
:100E3000022816D392ED150ADFED860AB4EE600A99
:100E4000F1EE10FA0DDB92ED120AD2ED110A80EEEE
:100E5000200ADFED810AB4EE600AF1EE10FA00DB41
:100E60000121022818D39FEDAB0AD2ED120A92EDB0
:100E7000111AC0EE810AF4EE400AF1EE10FA0BDB13
:100E8000D2ED0F0A92ED0E1AC0EE810AF4EE400A7E
:100E9000F1EE10FA00DB012100280FD092ED1D0ABF
:100EA000DFED9D0A20EE200ADFF8980BD0ED160A40
:100EB000F4EE400AF1EE10FA00D5012192ED150A88
:100EC000DFED960AB4EE600AF1EE10FA08DA92ED60
:100ED000160ADFED930AB4EE600AF1EE10FA18DBA1
:100EE00092ED110ADFED8F0AB4EE600AF1EE10FA0E
:100EF0000BD492ED0E0ADFED8C0AB4EE600AF1EE2F
:100F000010FA02D4908D022803DB508D032800DBF9
:100F1000012192ED100ADFED830AB4EE600AF1EED2
:100F200010FA08D492ED1C0AF1EE040AB4EE600A3D
:100F3000F1EE10FA10D5DFF80C0B026E406E80183F
:100F400000EE100ABAEEEF0ADFED780AB4EE600A9E
:100F5000F1EE10FA00DB0121084670470AD7A33BE7
:100F60000100C03F0020DFF8D41ACA6C12F10A0F4A
:100F70000FD29FED6F0AD1ED190AF4EE400AF1EE9F
:100F800010FA06DAD1ED1B0AF4EE400AF1EE10FA7F
:100F900000DB01207047000085EB113F010000409D
:100FA000000020420100404010B401460020DFF85C
:100FB000942ADFF8943AD3F8C04800EE104AD1EDF5
:100FC000000AB4EE600AF1EE10FA08D11478641C3D
:100FD0001470E4B2FE2C04DB3224147001E00446E9
:100FE000147003F50C6393ED010AD1ED010AB4EE20
:100FF000600AF1EE10FA08D15478641C5470E4B21F
:10100000FE2C04DB3224547001E00446547093ED4E
:10101000020AD1ED020AB4EE600AF1EE10FA08D12C
:101020009178491C9170C9B2FE2904DB322191707C
:1010300001E0014691701178322905DA51783229A0
:1010400002DA9178322900DB012010BC70470000E1
:101050003433333F010060400100A04001460020CE
:1010600091ED000AB5EE400AF1EE10FA01DCB1EEA6
:10107000400ADFF8D029DFED310AB4EE600AF1EE64
:1010800010FA08DBD3785B1CD370DBB2FE2B04DBD9
:101090003223D37001E00346D37091ED010AB5EE1F
:1010A000400AF1EE10FA01DCB1EE400AB4EE600A3B
:1010B000F1EE10FA08DB13795B1C1371DBB2FE2B27
:1010C00004DB3223137101E00346137191ED020A30
:1010D000B5EE400AF1EE10FA01DCB1EE400AB4EED2
:1010E000600AF1EE10FA08DB5179491C5171C9B25E
:1010F000FE2904DB3221517101E001465171D178A2
:10110000322905DA1179322902DA5179322900DBE4
:1011100001207047010070419A99993E010090406A
:10112000010080400000C8430000164301005C42FB
:101130008096184B0000A040C81B002035336B413F
:101140002DE9F24F82B00446DFF8F058E888ADF898
:101150000200A888ADF80000002637462046FFF7B9
:1011600023FF01902046FFF779FF8246DFF8D488FD
:101170003046C8F85000C8F85400D8F86800DFF8C6
:10118000C898D9F8C01800EE101AD4ED000A30EE55
:10119000C01A01EE900AF8EEE11A21EE211AB5EE1E
:1011A000401AF1EE10FA1BD598ED1D1A70EE411A97
:1011B000F5EE401AF1EE10FA01DC71EE401A9FEDE7
:1011C0006D1AF4EE411AF1EE10FA04DBD8F8601053
:1011D000491CC8F8601088ED1D0A4042C8F8680034
:1011E00009F50C6090ED010AD8F86C1094ED011A25
:1011F00031EE401A01EE901AF8EEE11A21EE211AB2
:10120000B5EE401AF1EE10FA1BD598ED1E1A70EEED
:10121000411AF5EE401AF1EE10FA01DC71EE401AB7
:101220009FED541AF4EE411AF1EE10FA04DBD8F8EF
:101230006020521CC8F8602088ED1E0A4942C8F898
:101240006C1090ED020AD8F8700094ED021A31EE9D
:10125000401A01EE900AF8EEE11A21EE211AB5EEDD
:10126000401AF1EE10FA1BD598ED1F1A70EE411AD4
:10127000F5EE401AF1EE10FA01DC71EE401A9FED26
:101280003D1AF4EE411AF1EE10FA04DBD8F86010C2
:10129000491CC8F8601088ED1F0A4042C8F8700069
:1012A00098F80800052809D10120C8F83000304618
:1012B00088F80800A8F80A00A8F80C00D8F83C0044
:1012C00002990818C8F83C00D8F82400D8F834105F
:1012D000884202D10120C8F83000D8F8280000EB7D
:1012E000400109EB810B0BF66C00C0ED000A616850
:1012F0004160A16881600299204600F071F901986F
:10130000012802D0BAF1010F36D19FEDB40ADBF803
:101310006C0800EE900A60EEA00ADBF8700801EE9F
:10132000100A21EE011ADBF8740801EE900A61EE52
:10133000A11A98F80000322805DA98F8030032283C
:1013400001DA30EE800A98F80100322805DA98F8C0
:101350000400322801DA30EE010A98F8020032283F
:1013600005DA98F80500322801DA30EE210A00F09B
:1013700075FB13E0CECC4C3E0BF66C00D0ED020AB0
:1013800090ED011ADBF86C0800EE100A20EE000A5E
:1013900001EE010A00EEA00A00F060FBD8F82C0074
:1013A000002810D1304604E009EB810181ED000AEC
:1013B000401C80B201460729F6DBF1EE0C0A60EE14
:1013C000200AC8ED050AD8F8280009EB8000D0ED06
:1013D000000A70EE600A98ED051A70EE810AC8EDF9
:1013E000050AD8F8280009EB800080ED000AD8F83B
:1013F000240009EB8000C0ED0E0A98ED070A30EEDC
:10140000200A88ED070AD8F8281009EB810191ED30
:10141000070A30EEC00A00F2204282ED000AC1ED58
:10142000070A98ED080AD0F8201400EE901A30EE62
:10143000200A88ED080A09F50C6194EC030A81EC96
:10144000030AD8F84410491CC8F8441098F808203A
:10145000012A01D0032A3AD102292BD26A8D042A0B
:1014600028DA296D002965D198ED060ADFEDBF0A5B
:10147000B4EE600AF1EE10FA08D5D0F8201401EEAF
:10148000101AB4EE601AF1EE10FA0FDAF9EE0C0A47
:10149000B4EE600AF1EE10FA4CDBD0F8200400EE56
:1014A000100AB4EE600AF1EE10FA43D50120C8F834
:1014B00030003FE027290AD3B8F80A20002A03D0D9
:1014C00011FA82F14B2902D30121C8F83010D0F86B
:1014D000200400EE900A98ED060A00F049F998F809
:1014E0000800012826D1B8F80A00002822D0B8F850
:1014F0000C1000291ED0032211FA80F03D2802DBD7
:101500000120C8F83000688D042800DB0222A88D75
:10151000824202D20120C8F83000FEF7EFFE0646F4
:10152000D8F86000C8F864003846C8F86000A8F829
:101530000C00A885D8F82400D8F83810401AFA30E2
:10154000FA242146B0FBF1F104FB1100B8F81210A7
:10155000884201D100F0FBF9D8F82400D8F83810FF
:10156000401AFA302146B0FBF1F104FB1100642867
:1015700001D100F016FABDF80200E988884204D1D2
:10158000BDF80000A988884200D00127D8F82400BF
:1015900009EB8001D1F82014C8F81810401CC8F8D5
:1015A0002400FA2802D10020C8F82400D8F8280026
:1015B000401CC8F82800072802D10020C8F82800DD
:1015C000D8F82C00401CC8F82C0046EA0700401E42
:1015D0008041C043C00FBDE8FE8F00000000000046
:1015E00030B4DFF8643490ED000AD3F8C02800EE80
:1015F000902A30EE600A03F50C62D0ED010A92EDFC
:10160000011A70EEC10A90ED021AD2ED021A31EE03
:10161000611AB5EE400AF1EE10FA02DDF0EE401A62
:1016200001E0F1EE401AF5EE400AF1EE10FA02DDAB
:10163000B0EE602A01E0B1EE602AB5EE401AF1EE9C
:1016400010FA02DDF0EE412A01E0F1EE412A71EEDE
:10165000821A71EEA21AB5EE400AF1EE10FA01DC20
:10166000B1EE400ADFF8E40390ED042A32EE000AFE
:1016700080ED040AF5EE400AF1EE10FA01DCF1EE1D
:10168000600A90ED050A30EE200A80ED050AB5EEFD
:10169000401AF1EE10FA01DCB1EE411A90ED060AA3
:1016A00030EE010A80ED060A90ED070A30EE210ABD
:1016B00080ED070ADFF88C23D46A002C12D10024B5
:1016C00006E003EB850505F62805C5ED001A641C48
:1016D000A4B225460F2DF4DBB2EE0E0A21EE800AED
:1016E00080ED180AD48903EB8403D3F8285800EE60
:1016F000105A31EEC00AD0ED180A30EE200A80ED03
:10170000180A03F62803C3ED001AF2EE0E0A80EE63
:10171000200ADFF8283383ED1C0AD2ED120AB4EE5A
:10172000600AF1EE10FA01D582ED120AD2ED130A29
:10173000F4EE400AF1EE10FA01D582ED130ADFED66
:10174000AB0AB4EE600AF1EE10FA03D5436EC91885
:10175000416601E000214166611CD18189B20F29F7
:1017600001D10021D181406E30BC70470100E040C2
:101770009FED9F1AB148418D042901DBB0EE001A9C
:10178000B5EE400AF1EE10FA07DBF5EE400AF1EE95
:1017900010FA02D5818D491C8185AA48017A002959
:1017A00005D002295CD02BD3032972D0ACE0F1EE36
:1017B0000C1A31EE211AB4EE401AF1EE10FA0BDBDE
:1017C000B4EE601AF1EE10FA06D5416C1029C0F0A3
:1017D0008B800021416487E0416A9B4A02EB8101D2
:1017E000D1F8201401EE901A994991ED010AF4EE16
:1017F000401AF1EE10FA40F18780C1ED011A83E042
:10180000416A914A02EB8101D1F8201401EE901A4D
:101810008F4991ED002AB4EE612AF1EE10FA01D55C
:10182000C1ED001AF7EE001AB4EE610AF1EE10FAFB
:101830006ADBB7EE000AF4EE400AF1EE10FA63D567
:10184000416C418100214164B9EE0C0A30EE410A3D
:10185000F4EE400AF1EE10FA10D40221017253E0C6
:10186000F9EE0C1A31EEC11AB4EE410AF1EE10FA9B
:101870004ADBF4EE410AF1EE10FA45D5032101727C
:101880007149426A01EB8201D1F82014704A51601B
:101890003AE0416A6C4A02EB8101D1F8201401EE72
:1018A000901A6B4991ED012AF4EE421AF1EE10FA0A
:1018B00001D5C1ED011ADFED621AB4EE610AF1EE55
:1018C00010FA21D5F4EE610AF1EE10FA1CDB416C3E
:1018D000818100214164B1EE0C0A31EE000AB4EEC0
:1018E000600AF1EE10FA0ED50121017258490A681A
:1018F00002654A684265544A436A02EB8302D2F8A1
:1019000020240A6000E00172007A7047002803D0AA
:101910004A49282200F0FCB8704710B5494C002015
:10192000E06200F03EF800F012F80520207210BDD1
:10193000841C0020002806D0444942684A6002689E
:101940000A60007A087270474048406E704710B5D0
:101950003A4C0020206520626061A0802085E085EF
:101960002086A065E065024640213A4800F092F8E2
:10197000E06F012801D1FEF773FEA08E002808D089
:10198000E18E814201D2608600E061860020A0865F
:10199000A067A06F012801D1E08E60860020A067BB
:1019A00010BD10B5254C0020206260616085E0808C
:1019B00002460821284800F06DF80020E0852086C6
:1019C000E06F012801D1FEF74BFEA06F012801D185
:1019D000E08E608610BD19490A6D4B8E9A4203D283
:1019E000488600208867704788867047EC51383EEB
:1019F0000000000038B50446124D14480F49012C70
:101A000006D10622CA860C22828196226A8205E0CD
:101A10000722CA860F22828164226A822A8AA2420F
:101A200009D04A8E082A03DAC88EFFF7D4FF02E0F5
:101A30008089FFF7D0FF2C8231BD0000CC1A002036
:101A4000FEFF7FBF146F002024440020B81B00203D
:101A50007C720020D81B0020884C002081B08DEDC6
:101A6000000A0098401000F1FE500090DDED000AE1
:101A7000C0EE200A9DED001A70EE810ACDED000A3D
:101A8000B5EE001ADDED001A80EE210A00EE810AA3
:101A900001B0704762F30F2262F31F4200B500BF2E
:101AA000130096469446103928BFA0E80C50FAD887
:101AB0005FEA417C28BF0CC048BF40F8042BC9072F
:101AC00028BF20F8022B48BF00F8012B00BD50F8BA
:101AD000041B61B150F8042BD30744BFA9F10103E3
:101AE0009A180023091F42F8043BFAD1EFE7704728
:101AF00062B38B0708D0521E11F8013B00F8013B7E
:101B000000F024808B07F6D1830740F0208000BFCF
:101B1000103A07D330B4B1E83810103AA0E83810C2
:101B2000F9D230BC530724BFB1E80810A0E8081070
:101B300044BF51F8043B40F8043BD20724BF31F8BE
:101B4000022B20F8022B44BF0B7803707047083A31
:101B500007D3B1E80810083A40F8043B40F804CB3A
:101B6000F7D25307E4E78268521C8260426832B1C0
:101B70000268531C036011704168491E4160704740
:101B8000BFF34F8FDFF85C0D016801F4E061DFF80F
:101B9000582D11430160BFF34F8F00BFFDE77CB5A7
:101BA00006460C4615460020ADF806008DF80400E8
:101BB0000120009001AB32467221082001F0C8FCE0
:101BC000002801D1002076BD8DF806609DF8040044
:101BD000A04328438DF804009DF804008DF8070009
:101BE00002230DF106027221082001F055FC0028A5
:101BF00001D1002076BD012076BD38B50020ADF8BA
:101C0000000082208DF80000DFF8A85D00AC287984
:101C10006070022300AA7221082001F03DFC002818
:101C200001D1002032BD8E208DF800002878607030
:101C3000022300AA7221082001F02EFC002801D105
:101C4000002032BD8F208DF800006878607002237C
:101C500000AA7221082001F01FFC002801D10020F9
:101C600032BD08221146D920FFF799FF8022114684
:101C7000AB20FFF794FF012032BDDFF8380D96212D
:101C8000017008214170042181703021C170382118
:101C900001710021417111218171704710B582B02D
:101CA0000020ADF8000004460A2001F00FFDFFF708
:101CB000E4FF00E0641C032C12D2DFF8DC0D215C91
:101CC0008DF80010201800798DF80100022300AA79
:101CD0007221082001F0E0FB0028EBD1002016BDA6
:101CE000012016BD10B5DFF8CC4CA37E627EA17C2E
:101CF0000FF2280001F038FBA07C617E0843A17E32
:101D000008434FF4805103D0002001F0EBFC02E0C7
:101D1000002001F0E9FC012010BD0000233E5077B7
:101D20007220502564204D25642049256400000060
:101D300038B50022ADF80020DFF8784CA28B0029DE
:101D400002D01043A08302E022EA0000A083A08B0F
:101D5000002805D002284BD01FD3032848D01AE012
:101D6000DD208DF8000000AD00206870022300AA7D
:101D70007221052001F090FB00284DD080208DF8C5
:101D8000000000206870022300AA7221052001F0E3
:101D900083FB002840D0012032BD81208DF8000057
:101DA00000ADA0796870022300AA7221052001F01D
:101DB00073FB002830D06878E073DD208DF80000D8
:101DC00000206870022300AA7221052001F064FB44
:101DD000002821D080208DF80000032068700223A5
:101DE00000AA7221052001F057FB0028D3D113E08F
:101DF00081208DF8000000ADA0796870022300AA50
:101E00007221052001F048FB002805D06878E073B6
:101E1000FFF7F3FE0028BED1002032BD1CB50446FA
:101E200000208DF80400ADF806000120009001AB01
:101E300093227221082001F08BFB002801D10020A1
:101E400016BD93208DF806009DF8040020438DF800
:101E5000070002230DF106027221082001F01CFB8D
:101E6000002801D1002016BD012016BD7CB5064614
:101E70000024254600A821460A4606C001F03EFD82
:101E8000042E01DB204676BD002E05D0022E12D096
:101E900009D3032E17D018E02146DFF8382D117230
:101EA00090F8614011E00121DFF8282D11726130B6
:101EB0004578847809E00221DFF8182D117261302D
:101EC000C578FF2401E06425FF242A4621460FF24D
:101ED000480001F049FA88208DF8000000AE7570C6
:101EE000022300AA7221082001F0D6FA00280BD0A4
:101EF0008A208DF800007470022300AA7221082045
:101F000001F0CAFA002805D10FF21C0001F02CFAEA
:101F1000002076BD012076BD233E4849202564205F
:101F20004C4F572025642000233E5772697465206A
:101F3000460000007CB50FF2B80001F015FA002051
:101F4000ADF804000546DFF86C4A207E0028DFF873
:101F5000D06D02D1284676BD6D1C032D11D2A81973
:101F600000798DF80400A819007A8DF80500022385
:101F700001AA7221082001F08FFA0028ECD100207C
:101F800076BD0120009004F11703912272210820F0
:101F900001F0DEFA002801D1002076BD012000907A
:101FA000334692227221082001F0D2FA002801D192
:101FB000002076BD01F0A2FC5F2180F8611001F0E5
:101FC0009DFC412180F8621001F098FCFA2180F814
:101FD000631001F093FCE62180F864103278E17D13
:101FE0000FF21C0001F0C0F901F016FF012076BDD0
:101FF000233E50726F78692070726F626500000036
:10200000233E50726F782063686970207265762075
:1020100030782578206465765F696420307825788B
:102020000000000038B5DFF88C49E17D0FF2DC00DC
:1020300001F09AF90020ADF80000607E002807D07A
:102040000120E0760FF2D80001F08EF9012032BDB8
:10205000DFF8D40D416F497A006A407A40180128B0
:1020600008DBE07E002805D10FF2D40001F07CF9F6
:10207000012032BD04202072002060738C208DF876
:10208000000000ADE07868700020A073022300AA71
:102090007221082001F000FA002801D1002032BD91
:1020A0000120A074FFF71EFE01210220FFF740FE71
:1020B000002801D1002032BD88208DF80000FF20CB
:1020C0006870022300AA7221082001F0E5F90028B7
:1020D00001D1002032BD8A208DF8000000206870F8
:1020E000022300AA7221082001F0D6F9002801D1AC
:1020F000002032BD00F09AFE2020FFF78FFE00285E
:1021000001D1002032BD012032BD0000233E5072BB
:102110006F78206F70656E203078257800000000A1
:10212000233E616C72656479206D6F6265616D201C
:102130006F6E20696E2070726F78206F70656E0010
:10214000233E20736B69707065642070726F20612C
:102150006C72656164792070726F7869206F6E00AF
:102160001CB50FF2C00001F0FFF800208DF804004C
:10217000DFF84048E07E012807D10FF2B80001F0F7
:10218000F3F80020E076012016BDDFF8140D016A97
:10219000002906D108210FF2B80001F0E5F800206F
:1021A00016BD406F002806D11D210FF2A40001F0DA
:1021B000DBF8002016BD407A00281DD0487A0028A0
:1021C0001AD001210020FFF7B3FD002801D1002023
:1021D00016BD0120009001AB80227221082001F081
:1021E000B7F9002801D1002016BD9DF804100FF6A4
:1021F000D04001F0B9F80BE00020A07401460220A5
:10220000FFF796FD002801D1002016BDFFF76AFDFB
:102210002020FFF703FE002801D1002016BD012079
:1022200016BD0000233E50726F7820636C6F73659B
:1022300000000000233E70726F78206261636B754E
:102240007020696E2070726F7820636C6F73650008
:1022500073656E736F722028256429202A206973A4
:10226000206E756C6C000000012070471CB50446A0
:102270000020ADF804000220009001ABC0227221C2
:10228000052001F065F9002801D1002016BD0120CC
:10229000009001AB9C227221082001F059F900281E
:1022A00001D1002016BD9DF804002070012016BD4C
:1022B0002DE9F04383B0054601F020FB044600F011
:1022C000F4FF064600200190DFF8E876787B0028CE
:1022D00005D10FF6FC3001F047F80120DCE00120C9
:1022E000009001AB9C227221082001F031F90028F6
:1022F00000F09D809DF8048040466870002078744E
:10230000387A042800F2BE80DFE800F0031234BC03
:10231000460041460FF6C83001F026F80120FFF7CD
:10232000A5FD012078742870287886F81801A9E0A6
:1023300004F161008178414508DA41460FF6AC307E
:1023400001F012F80220FFF791FD9BE040788045F4
:1023500080F2988041460FF6A83001F005F8002081
:10236000FFF784FD0120787400202870287886F813
:10237000180187E041460FF6983000F0F5FF00F0B5
:1023800055FD0020FFF772FD0120787400202870B1
:10239000287886F8180175E041460FF6843000F081
:1023A000E3FF0220009001ABC0227221082001F05F
:1023B000CFF800283BD09DF804309DF80520002A76
:1023C00005D01846C0F100090FFA89F900E09946D6
:1023D00049460FF65C3000F0C7FFB9F1FB0F32DB66
:1023E000C0208DF806000DF10608A9F1280088F834
:1023F000010002230DF106027221082001F04CF8C1
:10240000002814D098F801100FF6403000F0ACFF0F
:10241000C1208DF80600002088F8010002230DF18C
:1024200006027221082001F037F8002801D10020AF
:1024300032E00320FFF71AFD012028707874287815
:1024400086F818011EE004F161008078404505DA45
:102450000220FFF70BFD012028700EE094F86100C8
:10246000404505DA0120FFF701FD0120287004E056
:102470000020FFF7FBFC00202870012078742878EA
:1024800086F8180104F16100427894F861100FF6A3
:10249000D42000F069FF0120BDE8FE83FEB50446AC
:1024A0000D4600200190DFF80C653075ADF808008E
:1024B00030730120009001AB93227221082001F0BB
:1024C00047F8002856D0012000900DF10503DC22CA
:1024D0007221082001F03CF800284BD0FF20FFF7C4
:1024E0009DFC002846D09DF8040040070CD5B07C28
:1024F000012809D10FF67C2000F036FF00F096FC91
:1025000003203073B075FEBD9DF80400000745D56B
:10251000B07C012842D101221146DC20FFF73FFBAD
:10252000062211468020FFF73AFBDD208DF80800D7
:1025300024208DF80900022302AA7221082000F04D
:10254000ABFF002816D09DF805100FF6442000F0D0
:102550000BFF0FF6542000F007FF012070730220DC
:1025600000900DF10603C0227221082000F0F0FF58
:10257000002801D10020FEBD9DF806109DF807201F
:10258000002A00D049429DF8063009B20FF6A0108B
:1025900000F0EAFE03203073B075FEBD01F0AEF925
:1025A00007462078082820D16078FF281DD12946C9
:1025B000601CFFF75BFE627897F86100824207DBE0
:1025C0000120207021780FF6FC1000F0CDFE0AE00B
:1025D00097F86200904206DB0020207021780FF609
:1025E000E41000F0C1FE0120FEBD0020B0759DF892
:1025F0000400800615D50120307529462046FFF7D6
:1026000057FE00280DD0B07C00280AD0707C00282E
:1026100007D00FF6C41000F0A7FE00207074012050
:10262000B0759DF80400C021084201D0012030752A
:10263000307D002809D1F06B411CF1639DF8042026
:102640000FF69C1000F090FE01E00020F063F06BAC
:102650001E2807DB0FF6A01000F086FEFFF790FAA9
:102660000020F063B07DFEBD70B582B0064601F07B
:1026700045F904460120DFF82C180870307884F8FA
:10268000610004F1610570786870B078A870F07826
:10269000E87094F86100002808D06878002805D018
:1026A000A878002802D0E87800280CD10FF6541042
:1026B00000F05AFE5F2084F8610041206870FA2023
:1026C000A870E620E870E878AB786A78009094F813
:1026D00061100FF6381000F047FE012076BD1CB5E2
:1026E00004460020ADF804000220009001ABC02297
:1026F0007221052000F02CFF002801D1002016BD1A
:102700009DF80400207001A8417861709DF80410C4
:102710004278002A00D049429DF8043009B20FF6F1
:10272000001000F021FE012016BD10B5044601F096
:10273000E5F890F86110217090F86200607062789E
:1027400021780FF6F80000F00FFE012010BD38B51B
:1027500005460020ADF80000287807281BDA287805
:10276000DFF87044697801556A7829780FF6E0003F
:1027700000F0FAFD287802280FD19F208DF8000084
:10278000A0788DF80100022300AA7221082000F031
:1027900083FE002812D0012032BD28780528FAD106
:1027A00083208DF8000060798DF80100022300AAD3
:1027B0007221082000F070FE0028ECD1002032BD0C
:1027C00080B57C48007A042808D00120DFF8D016B4
:1027D000096A48770FF6900000F0C6FD012002BD9F
:1027E00080B5002905D0022909D005D3032909D0D5
:1027F0000AE0FFF774FF07E0FFF797FF04E0FFF739
:10280000A6FF01E0FFF7DCFFC0B202BDF8B5044649
:102810000D460026374600E040372846874218DA42
:10282000C01B402801DB402000E080B2C0B2009015
:102830003B193846A0F18002D2B27221082000F084
:1028400087FE0600E8D10FF62C0000F08DFD002079
:10285000F2BD0FF6300000F087FD3046F2BD10B536
:1028600082B0002400290FD12146ADF800108DF868
:10287000002000788DF80000022300AA72210820B1
:1028800000F00AFE04460EE0012908D10121009162
:1028900003467221082000F05BFE044603E00FF6B9
:1028A000140000F061FD4FF49F620FF2E8710FF623
:1028B000140000F059FD204616BD80B5DFF868050C
:1028C000DFF8E4150162883141670FF638110820FE
:1028D00002F082FC0FF65C111D20BDE8044002F0FE
:1028E0007BBC00000CED00E00400FA051CB50446BA
:1028F0000020ADF806008DF804002046012809D01C
:10290000042807D0102805D0402803D0802801D003
:10291000002016BD002202218020FFF740F901208F
:10292000009001AB90227221052000F011FE0028DA
:1029300001D1002016BD9DF8040000F0FC008DF8C8
:102940000400012C0AD0042C04D0102C1ED0402CE2
:1029500021D025E040F001008DF8040090208DF892
:1029600006009DF804008DF807009DF8040000F0B3
:1029700003009849087402230DF106027221052014
:1029800000F08AFD00280DD1002016BD40F00200A5
:102990008DF80400E2E740F003008DF80400DDE765
:1029A000002016BD022211468020FFF7F8F8012012
:1029B00016BD00000C1E002010B582B00FF20C7086
:1029C00000F0D2FC0020ADF80000FFF767F9814964
:1029D0000876002805D10FF2047000F0C5FC002035
:1029E00016BD40F29D300863DFF8C004486240F233
:1029F0004C408862DFF8B804C8624FF47A7008620D
:102A000040F6C150486340F62F008863002400E080
:102A1000641C052C12D2DFF89C04215C8DF8001098
:102A20002018007A8DF80100022300AA72210520E7
:102A300000F032FD0028EBD1002016BD012016BDAC
:102A400010B5644CE17D0FF2AC6000F08DFC4020CD
:102A5000FFF74CFF0120E074002060750320206424
:102A600001210846FFF764F9002801D1002010BDBC
:102A7000012010BD80B50FF2886000F075FC0020C9
:102A80005449C87401460120FFF752F9002801D1CA
:102A9000002002BD012002BD582100200120704706
:102AA0002DE9F0478AB0044606A800210A4606C070
:102AB000084605900890DC484569084685F87A0084
:102AC0000820009006AB94227221052000F040FD02
:102AD000002801D100205DE09DF81800A07306A831
:102AE0004178E1739DF81A1021729DF81B106172F4
:102AF0000179A1724079E0729DF81E0020739DF863
:102B00001F006073334EF07B2074307C6074607AF9
:102B1000217A41EA0027E07AA17A41EA0028607B25
:102B2000217B41EA0029E07BA17B41EA002A08A839
:102B3000019005A8009053464A464146384600F0A9
:102B40004BF8002808D10FF2C05000F00DFC012016
:102B500085F87A0000201DE00598206008986060E4
:102B600001207075306C012813DB0120049005985A
:102B70000390307C0290F07B0190CDF800A04B4692
:102B8000424639460FF2945000F0EEFB306C401E86
:102B9000306401200AB0BDE8F087F0B585B0016867
:102BA0000C4C61624268A2628368E362C568256278
:102BB00006692663476967638069A063039002978B
:102BC000019600950FF28C5000F0CEFB012005B06D
:102BD000F0BD00000C1E00202DE9704F84B082462D
:102BE0008B4616461C46B44D0FF21460297C085CD7
:102BF000E97B491C10FB01F240F6DC235A430292A8
:102C00008902B1F5803F01D34FF6FF71C9000A2256
:102C1000B1FBF2F1102868D18C4266D30120FFF796
:102C200065FE002879D12A6AD3172046A0FB0289C5
:102C300000FB0399CDE90089686AC117D046A8FB5B
:102C4000002308FB0133DDE9000180185941CDE97B
:102C50000001AA6AD3175846A0FB028900FB03991A
:102C6000DDE9000110EB080841EB0909E86AC1172A
:102C7000A6FB002306FB0133404649468018594114
:102C80001AFA8BF2B218121B02EBD272521012B265
:102C9000AAEB0204B61A002903DC00DB01D20020F3
:102CA0000146002C00D10124D5F830804FEAE879A4
:102CB000A8FB002308FB013309FB0033104619462B
:102CC000029AD31702F094FC0C990860686B86FB9B
:102CD00000012246E31702F08BFCA96B08180D993E
:102CE0000860012004B0BDE8708F102807D1642C63
:102CF00005DA4020FFF7FAFD00280ED193E74028BF
:102D000002D164398C4203D201288CD1642C8ADA36
:102D10001020FFF7EBFD002885D00020E2E700003F
:102D20004421002000B585B063494A6A02608A6A7E
:102D30004260CA6A82600A6AC2600A6B02614A6BB8
:102D40004261896B8161039141690291016901913D
:102D5000C16800918368426801680FF21C4000F06E
:102D600003FB012005B000BDF8B504460D46002662
:102D7000374600E040372846874218DAC01B402813
:102D800001DB402000E080B2C0B200903B19384621
:102D9000A0F18002D2B27221052000F0D9FB06001A
:102DA000E8D10FF2FC3000F0DFFA0020F2BD0FF2A4
:102DB000004000F0D9FA3046F2BD10B582B00024D0
:102DC00000290FD12146ADF800108DF800200078C1
:102DD0008DF80000022300AA7221052000F05CFBA0
:102DE00004460EE0012908D1012100910346722119
:102DF000052000F0ADFB044603E00FF2B82000F020
:102E0000B3FA40F2CB620FF2B8310FF2B82000F003
:102E1000ABFA204616BD2948214948610FF24441CA
:102E2000052002F0D9B90000946F002010B582B0DF
:102E30000020ADF8000000F038FA0FF2A83000F0E2
:102E400093FA1D480221C17200214173012207211A
:102E50008020FEF7A4FEDD208DF8000000AC0820E5
:102E60006070022300AA722100F016FB002801D135
:102E7000002016BD4022E021D920FEF790FED72089
:102E80008DF8000001206070022300AA7221082042
:102E900000F002FB002801D1002016BD012016BD64
:102EA000946F0020F4720020D0640020C2FCFFFF69
:102EB00064FBFFFF182100200C1E0020806D002005
:102EC000233E2626656E61626C6520307825780089
:102ED000233E647572696E672063616C00000000B8
:102EE000233E44455445435420256400233E444535
:102EF000544543545F48494748202564000000007A
:102F0000233E44482052454C45415345202564000A
:102F1000233E52454C4541534520256400000000A6
:102F2000233E4E4F4E455F4D4F44452025640000E3
:102F3000233E4E6F666673657420256420307825C5
:102F4000782C20307825780A00000000233E577244
:102F5000697465204E6F6666736574202564200A67
:102F600000000000233E55703D25642C4C6F3D252C
:102F700064000000233E544D4433373235205265FF
:102F800061642053545F5A494E54200A00000000E7
:102F9000233E7243414C494253544154203D20301A
:102FA0007825780A00000000233E43616C69627254
:102FB0006174696F6E2046696E6973686564200A82
:102FC00000000000233E536C65657020414443209F
:102FD0002564202564000000233E50555000000069
:102FE000233E696E7620696E7420256420737461B7
:102FF0007475732025780000233E52657365745202
:1030000051000000233E5054483D3000233E5448B8
:103010005345542025642025642025642025640020
:10302000233E505220474554205452494D20256498
:10303000203078257820307825780000233E4745D9
:1030400054205448203078257820307825780000A6
:10305000233E434E472053657474696E6720256490
:103060002030782578000000233E50555020464FF0
:103070005243450050524F582044554D5020462150
:103080000000000050524F58492044554D502053E5
:103090000000000050726F78696D6974795F544D5B
:1030A00044333732355F52656769737465725F52B6
:1030B0005700000052656720525720636D642065F9
:1030C0007272000025732C2025640000233E4C6999
:1030D0006768742070726F6265000000233E544D73
:1030E00044333732352070726F6265206661696CD7
:1030F00000000000233E4C49474F203078257800DF
:10310000233E4C4947430000233E4C2061676169E0
:103110006E206368616E676564000000233E723D47
:10312000256420673D256420623D256420633D259C
:1031300064206174696D653D256420616761696E15
:103140003D2564206C75783D257520726561647934
:103150003D256400233E204C4947485420434F45B9
:1031600046202564202564202564202564202564CC
:103170002025642025640000233E4C494748542004
:1031800047455420434F454620256420256420258B
:103190006420256420256420256420256400000027
:1031A0004C494748542044554D50204621000000CA
:1031B0004C494748542044554D50205300000000CE
:1031C0004C696768745F416D6269656E745F544DE8
:1031D00044333732355F52656769737465725F5285
:1031E00057000000233E43616C6962726174696F2D
:1031F0006E20537461727420212121200A00000086
:1032000001041040351F0008252000086121000836
:1032100069220008000000009D24000869260008BB
:103220000000000000000000E12700080D28000851
:103230005F280008351F00082520000861210008CC
:1032400069220008000000006D22000869260008BD
:10325000000000000000000000000000000000006E
:1032600000000000B9290008412A0008752A00085A
:103270009D2A000800000000A12A00089B2B0008DE
:103280000000000000000000252D0008692D000846
:10329000BB2D000810B5DFF8D04500224FF40871AF
:1032A0002046FEF7F7FB204610BDDFF8BC0570474F
:1032B00010B5FFF7EFFF044600231A4611460846F3
:1032C00000F029FAC046C04600F057FB0B2120460B
:1032D00000F033F800F00FFD204600F0F1F9204631
:1032E00000F00AF800F098F900206072A072E07215
:1032F00020730120607310BD10B50446DFF86C0523
:1033000000F003FCDFF8680500F0FFFB01206071AE
:1033100010BD10B5044600F038FC0120A07110BDAE
:1033200080B500F04CFE012002BD10B50446E079E6
:1033300000F028FF0121217010BD70B50446002562
:10334000E679E171FFF7F1FF002807D02046FFF78B
:10335000D3FF2046FFF7DDFF012503E0E67120469D
:10336000FFF7E3FF284670BD0EB470B5C1B0054647
:1033700000A84FF4807102F0D9F9FFF796FF0446D8
:1033800045AB2A464FF4807100A802F0D3F900A89B
:1033900002F0EEF9451C002000A9691801F8010CA3
:1033A000DFF8D0643078401C30707078F02108422B
:1033B00002D0992002F0F8F902F06CFA7078401C03
:1033C000707094F81C012818FA2817DA94F81C0178
:1033D000002805D00A2094F81C11091981F81C0155
:1033E00094F81C01001900F21D102A4600A9FEF7EE
:1033F0007FFB94F81C01281884F81C017078F021D8
:10340000084202D0992002F0CFF97078401E707007
:10341000C0B2002801D102F037FA02F025FD41B018
:1034200070BC5DF810FB052803D0082801D01D28CA
:1034300005D1DFF83C04DFF8401408607047DFF87E
:103440002C04DFF834140860704710B50446FFF709
:103450002CFFD0E9442310461946224602F028FEEC
:1034600000F0010011F0000101D100280ED0DFF8BA
:1034700010442068401C20601E2807DB0FF210401B
:10348000FFF772FF00F0F9FE0020206010BD002061
:10349000DFF8EC13086070472DE9F84305460E4647
:1034A00017464FF00208DFF8CC436078F02108425D
:1034B00002D0992002F078F902F0ECF96078401C13
:1034C00060709DF80000401E8DF8000017F8019B09
:1034D0002846FFF7A8FF00AB4A463946304600F0C1
:1034E00001FF002812D06078F021084202D0992014
:1034F00002F05AF96078401E6070C0B2002801D115
:1035000002F0C2F9FFF7C3FF01201FE05FFA88F85D
:10351000424629460FF28C30FFF726FF4046A0F1C5
:1035200001080028D7D16078F021084202D0992004
:1035300002F03AF96078401E6070C0B2002801D1F4
:1035400002F0A2F92846FFF780FF0020BDE8F283D1
:103550002DE9F04704460D4616461F46DFF8248342
:10356000089888F80000DFF80C9399F80100F02122
:10357000084202D0992002F017F902F08BF999F86D
:103580000100401C89F801002046FFF74CFF4FF076
:10359000020A434632463946284600F055FF0028C5
:1035A00015D099F80100F021084202D0992002F0CC
:1035B000FBF899F80100401E89F80100C0B200280C
:1035C00001D102F061F9FFF762FF012022E05FFA0A
:1035D0008AFA524621460FF2D820FFF7C5FE504620
:1035E000A0F1010A0028D4D199F80100F021084285
:1035F00002D0992002F0D8F899F80100401E89F80D
:103600000100C0B2002801D102F03EF92046FFF7C8
:103610001CFF0020BDE8F08701F0E0BE2DE9F84373
:10362000044602264FF000080125DFF8509216E00C
:103630003046461EC0B2002813D1B8F1000F0CD19D
:10364000D4E94467012000212A4602F041FD26EA20
:10365000000027EA0101C4E9440102266D1C202D67
:103660001ADA59F825000028E2D0C06F00688047B8
:103670008046B8F1010FDBD1D4E944670120002175
:103680002A4602F025FD30433943C4E944010120B4
:1036900059F825100877D0E7D4E94401002901D171
:1036A000032807D0002901D1022803D0002905D121
:1036B000012803D140F48050C4E94401BDE8F183FE
:1036C00001F00BB801F06DB801F01BB869490A6A46
:1036D0000B6A00BF00BF00BF00BF00BF9B1A834240
:1036E000F6DB704701F07CB801F084B8012000F0EF
:1036F00009B9002000F006B9012000F00FB9002040
:1037000000F00CB901F080B810B50446FFF7CDFD0C
:1037100080F8194110BD2DE9F04782B00C461546DE
:103720002F46264680464FF47A714FF03C0C4FF4FA
:10373000616918FB09F216FB0C22BA1801FB023270
:10374000DFF844E19EF900A01AFB09F99EF901A0F7
:103750001AFB0C9C9EF902904CFA89FCBEF903906E
:1037600001FB0C919EF808C0BCF1000F22D144EA85
:1037700000012943194302D001218EF808108EF868
:103780000000B8F1000F04D59EF8000018308EF844
:1037900000008EF801408EF80250AEF8033000931E
:1037A0003B4632469EF900100FF23410FFF7DCFD65
:1037B000BDE8F38791420DD3A1EB020CACF2D17CB2
:1037C000DFF8C890CC45DAD30FF2F00002B0BDE8C4
:1037D000F047C9E5D3D2A2EB010CACF2D179DFF806
:1037E000ACA0D145CBD363460FF2E00002B0BDE8F8
:1037F000F047B9E510B504002FD002F020FD2249B2
:10380000CA68002A00D0841AB1F80320A218A1F8CF
:10381000032012B2B2F57A7F06DBA2F57A72A1F824
:1038200003208A78521C8A7091F902203C2A04DB1A
:103830003C3A8A704A78521C4A7091F901203C2A1D
:1038400004DB3C3A4A700A78521C0A7091F9002055
:10385000182A01DB00220A70C86010BD0A4905223F
:10386000FEF746B900000000D8580020005800407C
:1038700000540040501E002050210020946F002072
:10388000BC720020F5720020207200205F4C2605DB
:10389000233E496E6974696C61697A6520493243D7
:1038A00000000000495745202564202564000000E1
:1038B00049524520256420256400000041542D53C1
:1038C00065745453312025642025640041542D53E0
:1038D000657454533220256420256420256400003B
:1038E00053657453797374656D54696D65202564EF
:1038F0003A25643A25642E2564000000004870478C
:1039000050700020DFF8302B002803D040211046F3
:1039100003F0C6BC4021104603F0C4BCDFF8182BEE
:1039200000284FF48051104601D003F0B9BC03F0D9
:10393000B9BC1CB5DFF8044B204603F0B9FB0121EC
:10394000084603F03EFD01208DF8040000208DF8AC
:103950000500ADF806004FF4807120460183C04693
:103960004FF48070009000A9204603F04FFC4FF404
:1039700080710020FFF7B6FE13BDF0B583B0DFF80D
:10398000B84A204603F094FBDFF8B45A284603F007
:103990008FFBDFF8B06A304603F08AFB012108464E
:1039A00003F00FFD0121022003F00BFD0121042093
:1039B00003F007FD0121802003F003FD03208DF8B3
:1039C000040001208DF8060000208DF807008DF816
:1039D000050049F6FF600090DFF84C7C00A93846EE
:1039E00003F014FC4FF6FF70009000A9204603F08E
:1039F0000DFC00A9284603F009FC00A9304603F09D
:103A000005FC0021012003F0DCFC0021022003F072
:103A1000D8FC0021042003F0D4FC0021802003F016
:103A2000D0FC0121032003F0CCFC01208DF8040020
:103A300000208DF80500ADF806000121022003F0FA
:103A4000C0FC402120460183C0464020009000A9D0
:103A5000204603F0DBFB4FF4805120460183C04633
:103A60004FF48055009500A9204603F0CFFB29466E
:103A700038464183C046009500A9384603F0C6FB8E
:103A800004220A21204603F00FFC092203212046CC
:103A900003F00AFC02208DF8040001208DF80500D7
:103AA0008DF8060000208DF807004FF4806000902C
:103AB00000A9204603F0AAFB0820009000A9204698
:103AC00003F0A4FB04220821204603F0EDFB0422AE
:103AD0000721204603F0E8FB02208DF804000120B6
:103AE0008DF805008DF8060000208DF807004FF4D2
:103AF0008070009000A9204603F088FB8020009091
:103B000000A9204603F082FBF7BD30B585B0DFF891
:103B10001C1B884235D0DFF8181B88422FD14FF488
:103B200080050C460121284603F056FC01210220A5
:103B300003F047FC0121284603F06FFC00212846D2
:103B400003F06BFC0020ADF804004BF6FF70ADF8FD
:103B500006004FF48060ADF80A004FF48040ADF8E5
:103B60000C000A20ADF80800DFF8CC0A009000A98C
:103B7000204603F0E8FC0121204603F047FD05B094
:103B800030BD4FF400150C46CCE72DE9F04192B062
:103B900001214FF4805003F02AFC0121032003F09F
:103BA00010FC01214FF4800003F00BFCDFF88C487F
:103BB00005221146204603F077FBDFF87C580522EA
:103BC0001146284603F070FB05220421284603F025
:103BD0006BFB05220F21204603F066FB02208DF8C7
:103BE000040001208DF805000020ADF8060020201B
:103BF000009000A9204603F009FB2020009000A9B6
:103C0000284603F003FB1020009000A9284603F08B
:103C1000FDFA4FF40040009000A9204603F0F6FAA8
:103C2000DFF8104A204603F053FDDFF8105A002059
:103C3000288068600120288100206881E8600720D2
:103C4000288200206880DFF8F869304603F0E2FD42
:103C5000DFF8F079384603F0DDFD4FF48060069020
:103C600000210D9103210E9100210F910A910890DE
:103C7000DFF8A80A039008461090099007904FF4C7
:103C800000300C9008460B904FF0C068CDF80880CB
:103C9000402005900846049002A9304603F03EFEFD
:103CA00000200B90CDF80880059005F114000490D9
:103CB00002A9384603F032FE0020688029462046DB
:103CC00003F062FD01220221204603F091FD012252
:103CD0001146204603F08CFD0121204603F07CFDB7
:103CE0000021304603F052FE0021384603F04EFE1C
:103CF00012B0BDE8F0811FB50121084603F061FB59
:103D000001214FF4804003F072FB00208DF80C007D
:103D10008DF80F0001200290DFF80C4902A920461F
:103D200003F074FA0420029002A9204603F06EFA10
:103D30000820029002A9204603F068FA00210846F4
:103D400003F0E4FE0221002003F0E0FE0321002046
:103D500003F0DCFE00208DF8040001208DF8060041
:103D600000900C208DF8050000A803F0E3FE04206D
:103D700000900C208DF8050000A803F0DBFE082061
:103D800000908DF8050000A803F0D4FE012003F098
:103D90000FFF042003F00CFF082003F009FF1FBDF4
:103DA00000B585B00121084603F00BFB01214FF45B
:103DB000804003F01CFB00208DF810008DF81300EC
:103DC0000820039003A9DFF8600803F01FFA03211D
:103DD000002003F09BFE00208DF8080001208DF8E4
:103DE0000A00082001908DF8090001A803F0A2FE46
:103DF000082003F0DDFE09208DF800000E208DF86C
:103E0000010000208DF8020001208DF8030000A8B9
:103E100003F0DBFE05B000BD00B585B0012108460A
:103E200003F0CFFA01214FF4804003F0E0FA0020C4
:103E30008DF810008DF813000420039003A9DFF81B
:103E4000E80703F0E3F90221002003F05FFE002001
:103E50008DF8080001208DF80A00042001900C2044
:103E60008DF8090001A803F065FE042003F0A0FE10
:103E700008208DF800000E208DF8010000208DF83C
:103E8000020001208DF8030000A803F09EFE05B09B
:103E900000BD30B58DB0044601214FF4807003F0B1
:103EA000A6FA00A803F0ECF90A20009003208DF890
:103EB000040000208DF8070000A9DFF8800503F05A
:103EC000A5F903F0BBFE02A803F0FDFE4FF480301D
:103ED000039002A803F0E9FE06A803F0DCFEDFF879
:103EE000BC5A06A9284603F0B6FE07230122214644
:103EF000284603F0F9FE0121284603F038FF01218E
:103F0000284603F0E6FE0DB030BD38B5DFF88C4A28
:103F1000204603F027FF4FF47A750221204603F074
:103F20003DFF002803D12846451E0128F5DA20462A
:103F3000BDE8324003F026BF80B50021DFF85C0AFF
:103F400003F0C7FE00214FF48070BDE8044003F089
:103F50004EBADFF8E8090068704710B504F0A4F81D
:103F6000DFF8544902460B46226063604FF47A72D0
:103F7000002301F05FFBA0602146DFF8400904F058
:103F800011F9DFF8BC4904F045F900280DD00020F4
:103F900004F049F9FFF7B2FC406DFFF7C1F9214683
:103FA0000620BDE8104004F045B9DFF8F40904F03C
:103FB00014FA21460220BDE8104004F03BB910B5C8
:103FC000DFF878190860DFF8D849002808D00146E2
:103FD000204604F08DFA2046BDE8104004F0FDB9FB
:103FE0002046BDE8104004F04ABA000030B4014653
:103FF00001200023DFF8AC291C469460946814F07B
:104000000C0FFBD10C460C2C5DD8DFE804F0215CD2
:104010005C5C071A21323940474E5500946844F0E1
:10402000800494604FF4C064DFF87C592C601468FD
:1040300024F080741460DFF87449DFF874592C6040
:1040400042E00346DFF86C49DFF864592C603BE03E
:10405000946894604FF4C064DFF84C592C60146885
:1040600024F080741460DFF85449DFF844592C6060
:104070002AE00223DFF84849DFF834592C6023E0B6
:104080000323DFF84049DFF828592C601CE00423A3
:10409000DFF83449DFF818592C6015E00523DFF804
:1040A0002C49DFF80C592C600EE00623DFF820497C
:1040B000DFF8FC582C6007E00723DFF81849DFF829
:1040C000F0582C6000E01846002B4AD00FF6681418
:1040D00003EBC3031B1994689460146824F0807484
:1040E0001460146824F0806414609C781D8844EA8D
:1040F0008514DD786D086D1E44EA05441D7944EA97
:1041000005645460DC881D7A2D0745EA8414DFF8C5
:10411000C8582C60146844F0807414601468A401BA
:10412000FCD55B7943F4C063DFF87C482360936877
:10413000936093689360052904D1916841F09001E0
:10414000916005E00B2903D1916841F480519160A1
:10415000916841F002019160916801F00C01082919
:10416000FAD1DFF84C180968DFF87028914207D2BD
:10417000DFF86C180A6822F4404242F480420A6078
:1041800030BC704732E7002800E0401EFDD1704788
:10419000F0B583B00727DFF89414884203D14FF4B9
:1041A0008074802502E04FF48064082501208DF89A
:1041B00004008DF805008DF8060000208DF807003A
:1041C0000094DFF8206800A9304603F01FF800953E
:1041D00000A9304603F01AF8214630464183C04614
:1041E0000F20FFF7D0FF214630460183C0460F2045
:1041F000FFF7C9FF3846471E80B20028ECD1009572
:1042000000A9304603F002F8214630464183C046FB
:104210000520FFF7B8FF294630460183C046052038
:10422000FFF7B1FF214630460183C0460A20FFF761
:10423000AAFF214630464183C0460520FFF7A3FF71
:10424000294630464183C0460520FFF79CFF0220E7
:104250008DF8040001208DF805008DF8060000207F
:104260008DF80700009400A9304602F0CFFF0095BA
:1042700000A9304602F0CAFFF7BD38B50024DFF8C8
:1042800068570121286803F0FAF9286803F02CF92F
:104290002868FFF73AFC05E02868FFF779FF2868EF
:1042A000FFF733FC4FF40031286803F0F3F90028DE
:1042B00002D0641C332CEFDB31BD30B40022838A82
:1042C000008BDFF82447656843EA0040084000029D
:1042D00055EA102060600840884200D10122104653
:1042E00030BC70472DE9F84F04460D4616464FF492
:1042F00020691F78DFF8F0864FF40031D8F800000D
:1043000003F0C8F9002808D04846A0F101090028A8
:10431000F2D1FFF7B2FF00208CE0D8F8000001884E
:104320004FF6FF52114001800121D8F8000003F040
:1043300079F94FF4007AD1460020C8F80400D8F883
:1043400000B0DFF8A8165846FFF7B7FF002805D1E0
:104350004846A0F101090028F1D163E0D1460022CE
:104360002146584603F076F90020C8F80400D8F832
:104370000040DFF87C162046FFF79FFF002805D19C
:104380004846A0F101090028F1D14BE03146C9B2FD
:1043900020460182C046D1460020C8F80400D8F863
:1043A0000040DFF850162046FFF787FF002805D1B0
:1043B0004846A0F101090028F1D133E0012F15D1C1
:1043C000297820460182C046D1460020C8F8040062
:1043D000DFF82416D8F80000FFF76FFF002823D17C
:1043E0004846A0F101090028F2D11BE03846471EDB
:1043F000C0B2002818D015F8011BD8F800000182BF
:10440000C046D1460020C8F80400DFF8EC15D8F803
:104410000000FFF752FF0028E8D14846A0F101094B
:104420000028F2D1002005E00121D8F8000003F0B7
:1044300005F90120BDE8F28F0004024000000240AF
:1044400000080240001C02402DE9F54F81B00D46E6
:104450001E464FF420683778DFF88C454FF4003162
:10446000206803F017F9002808D04046A0F10108A1
:104470000028F3D1FFF701FF0020D3E02068018876
:104480004FF6FF52114001800121206803F0CAF865
:104490004FF40079C84600206060DFF850A5D4F8DA
:1044A00000B051465846FFF708FF002805D14046A6
:1044B000A0F101080028F2D191E000229DF804103B
:1044C000584603F0C7F8C84600206060D4F800B032
:1044D000DFF81C155846FFF7F0FE002805D14046CE
:1044E000A0F101080028F1D179E0BDF80810C9B2A7
:1044F00058460182C046C846DFF80015206803F020
:10450000C9F8002805D14046A0F101080028F3D1E0
:1045100065E00121206803F085F8C846002060604E
:10452000D4F800B051465846FFF7C7FE002805D121
:104530004046A0F101080028F2D150E001229DF888
:104540000410584603F086F8022FC84639DADFF81F
:10455000B014206803F09EF8002805D14046A0F171
:1045600001080028F3D13AE00021206803F07BF82D
:104570002068018B012103F061F8C846DFF884143C
:10458000206803F087F8002805D14046A0F1010813
:104590000028F3D123E02068008AC0B22870307868
:1045A000401E3070C84620680188890505D5404600
:1045B000A0F101080028F6D111E0012103F053F821
:1045C0002BE000206060DFF840142068FFF775FEE4
:1045D000002806D14046A0F101080028F3D10020B0
:1045E00020E0012616E0012F0CD1012E0AD1002671
:1045F0003146206803F037F82068818A018B012159
:1046000003F01CF82068818A490603D5008A05F862
:10461000010B7F1EFFB2002FE5D10121206803F0BE
:1046200022F80120BDE8FE8F000002400054004047
:10463000005800400030014070F30500F470002085
:104640005864024010640240DFF8C0030168082982
:1046500033D1DFF850130A6842F080720A60426872
:10466000B2F1806F03D10A6842F080620A600A6882
:104670009201FCD58A6842F002028A608A6802F0E0
:104680000C02082AFAD14268B2F1806F02D10A689E
:104690001201FCD5DFF818130968DFF840239142B6
:1046A00007D2DFF83C130A6822F4404242F4804209
:1046B0000A6000210160416070474168B1F1806F7C
:1046C0000AD1DFF8E0120A6842F080620A600A68E4
:1046D0001201FCD5002141607047DFF83403016806
:1046E00041F080510160DFF8F80201688908890013
:1046F00041F0010101600FF22900DFF81813086092
:104700007047DFF81403016821F00401016030BF35
:10471000016841F004010160704700000C30014065
:1047200010B5FEF7C2FD807A012803D1012003F005
:1047300006FF02E0002003F002FFDFF8DC428021E8
:10474000DFF8D80203F05EF8002820D172B6954851
:10475000DFF8B812826802F00C020A60006800F00C
:1047600080604860206840F00400206004F064F835
:10477000B0F5704F02D9022004F054F830BF62B691
:10478000206820F004002060BDE810405CE720684D
:1047900020F00400206030BF206840F0040020605A
:1047A00010BDDFF87002006800470000DFF87012EB
:1047B000401E052812D8DFE800F00306090C110F8F
:1047C000DFF820120AE0DFF85C1207E0DFF8581289
:1047D00004E0DFF8581201E0DFF854120846704791
:1047E00010B50C46FFF7E2FF214689B2BDE8104044
:1047F00002F056BD10B50C46FFF7D8FF214689B22E
:10480000BDE8104002F04EBDE0B5002A03D10C22F5
:104810008DF8092002E008228DF8092000281CD01C
:10482000012802D0032821D007BD012001901020CB
:104830008DF8090006208DF800000E208DF801008B
:1048400000208DF808008DF80200012917D1012001
:104850008DF80A008DF8030015E00420019008206F
:104860008DF800000E208DF80100E9E70820019086
:1048700009208DF800000E208DF80100E0E78DF88A
:104880000A008DF8030001A803F054F900A803F012
:104890009CF907BD10B5044601214FF4802002F0B9
:1048A00090FD2146102003F0F4FF00214FF48020FA
:1048B000BDE8104002F085BDF071002008380020EE
:1048C0003EB50C4615460422014602A8FDF720F924
:1048D0000422214601A8FDF71BF90422294600A85D
:1048E000FDF716F902A9002003F09AFE01A90020A5
:1048F00003F013FF03F00CFF04464E4A0023009818
:104900001946101A63EB0101490341EAD041400303
:1049100000F090FE0090844205D2011B4FF0004051
:1049200003F0D1FF37BDA04207D2C4F50050009973
:1049300009184FF0004003F0C6FF37BDB0720020E9
:10494000383300202DE9704384B004460D461646E6
:1049500002A9002003F0B7FE01A9002003F02EFFFA
:1049600003F0D6FE0090334AA2FB00894FEA583884
:1049700048EAC948A2EB08000090042202A9204698
:10498000FDF7C6F8042201A92846FDF7C1F8042264
:1049900000A93046FDF7BCF8BDE87F830020014048
:1049A000E033002000380240003C024000127A0050
:1049B000142100208096980003F076BB0024F400B8
:1049C00000366E010048E801005A6202006CDC0209
:1049D00080F0FA0200BD0105843802400190D00346
:1049E000007000400004024050210020010003003C
:1049F0008200070080000700840007000400001008
:104A00000200001040000010020003007472002039
:104A1000403802406C72002010ED00E00030014090
:104A20000000024000080240000C0240001002405A
:104A3000001C024000CA9A3B200110040F0302012F
:104A400003F00010060F01020103C00010080F015F
:104A5000020103C00010060F01020103F00010065E
:104A60000F01020103600008040F02020103C800E5
:104A700010040F02020103A80010020F0302010339
:104A8000506002604160086070470A68F8E748605B
:104A90000160704701684068F9E7F8B50600DFF883
:104AA0007C5916D42C460020A96900E0096805F15C
:104AB0001802914204D00C46A2689642F6D1012019
:104AC000002842D1286A876D182003F083FF040074
:104AD00001D12846F2BDA660002F05D0B74203D20F
:104AE000B6FBF7F0784300E03046E060002F02D0DC
:104AF000B74200D23E46266100202075DFF82069CB
:104B00003078401C30707078F021084202D0992033
:104B100000F04AFE00F0BEFE7078401C707005F197
:104B200018012046FFF7B1FF7078F021084202D04B
:104B3000992000F039FE7078401E7070C0B20028D5
:104B400001D100F0A1FE01F08FF92046F2BD38B589
:104B5000044694F91400002829D1DFF8C4582878B5
:104B6000401C28706878F021084202D0992000F09B
:104B70001BFE00F08FFE6878401C68702046FFF72F
:104B800089FF204603F03EFF6878F021084202D0FA
:104B9000992000F009FE6878401E6870C0B20028B5
:104BA00001D100F071FEBDE8314001F05DB931BDC9
:104BB0001CB50C4611461A0006D0A1684164E16894
:104BC00081642169C16407E0002905D1A1680165FC
:104BD000E16841652169816521690191E168009180
:104BE000A36890F908100FF67800FEF7BDFB13BD1F
:104BF0002DE9F84304460D4610461E466FF0004767
:104C0000FFF74BFF804695F9050095F904108142A6
:104C100015D10A30800003F0DDFE814695F90500CC
:104C2000012807DB820029684846FCF771FF2868E5
:104C300003F0E8FEC5F8009068790A30687195F9CC
:104C40000400411C2971296841F82080DFF8CC0755
:104C5000804504D098F81400401C88F81400002007
:104C600008E0296851F820108A68974201DB17464E
:104C7000A960401C95F904108842F2DB089B32467B
:104C8000A968204601B0BDE8F04391E72DE9F8435B
:104C900004460D461E466FF0004CDFF880170F46A5
:104CA00008464FF0FF334FF0000E05E0C44501DB2E
:104CB000C4464F460EF1010E95F90480C6450DDA43
:104CC000D5F8008058F82E90D9F80880002BEDD543
:104CD0009045EBD1484673465BB2EBE7002B13D40B
:104CE000B8F1010F10DB07E02A6802EB830CDCF857
:104CF00004C042F823C05B1C95F90420A2F1010C0A
:104D00006345F1DB521E2A71884204D0017D491EA1
:104D10000175FFF71CFFAF60089B324639462046FD
:104D200001B0BDE8F04343E710B4826A436B006C06
:104D30009C68002C02D56FF0004300E01B6984687A
:104D4000002C02D56FF0004000E00069984200DDC1
:104D50001846D2685143884201DB012000E0002060
:104D600010BC7047F8B50446DFF8B0562E6A776C71
:104D70000120002194F9082001F0AAF93843706459
:104D800005F124012046FFF780FE0120F2BD70B539
:104D90000446DFF88806056A6E6C0120002194F94C
:104DA000082001F095F926EA000068642046FFF724
:104DB00071FE012070BD012070472DE9FC410446C1
:104DC0000D4617461E46012000902A4604F1200198
:104DD0002046FFF70DFF06EB460004EB800800209D
:104DE000009033463A4608F12C012046FFF700FFB9
:104DF00094F90800042801D0102801D104F056FBD2
:104E0000019598F9300000903346627A94F90810C1
:104E10000FF26C60FEF7A8FABDE8F3812DE9FC41C2
:104E200004460E4617461D4601200090324604F106
:104E300020012046FFF72AFF05EB450004EB800820
:104E4000002000902B463A4608F12C012046FFF73F
:104E50001DFF019698F9300000902B46627A94F974
:104E600008100FF23060FEF77FFABDE8F381F8B565
:104E700005460C4616461F46FEF740FD2069B0F574
:104E80007A7F01DD00202061002F08D0686C0328A4
:104E900000DBA060A86C03280BDBE060F1BD002EF6
:104EA00007D1286D032800DBA060686D032800DBB4
:104EB000E060F1BD38B50446A56A01230A462946DB
:104EC000FFF7D5FFA868012809DB2869012806DA61
:104ED000E06D002801D5002032BD022032BD002047
:104EE00032BD38B5044601EB410004EB8000456B50
:104EF00000230A4629462046FFF7B9FFA868012883
:104F000009DB2869012806DAE06D002801D50020B8
:104F100032BD022032BD002032BD002900D5C9E7D4
:104F2000DFE7012900DA012113460A4645E7012996
:104F300000DA012113460A4670E780B5DFF8E40481
:104F4000006F002806D11C210FF25C50FEF70CFA0E
:104F5000002002BD417A481E8041C00F02BD1346A9
:104F60004FF0FF32114628E713464FF0FF3211464B
:104F700054E780B5DFF8AC044068002806D1012171
:104F80000FF22450FEF7F0F9002002BD417A00290B
:104F900002D1C06F40688047012002BD80B5FFF795
:104FA000F6FEDFF880044068002806D101210FF2E8
:104FB0001050FEF7D9F9002002BD417A002902D134
:104FC000C06F80688047012002BDDFF85024126A5C
:104FD000926D02F582725242C265C3E610B5044674
:104FE000012900DA012113460A46FFF7E6FE94F98B
:104FF0000800042801D0102803D1BDE8104004F0B7
:1050000055BA10BD10B500290FD5846A01230A4690
:105010002146FFF72CFFA068012804DB2069012846
:1050200001DA022010BD002010BDBDE8104058E795
:10503000DFF8E823126A926D02F582725242C2656D
:1050400090E610B500290FD5846A01230A4621464F
:10505000FFF70DFFA068012804DB2069012801DAB1
:10506000022010BD002010BDBDE8104039E7DFF878
:10507000AC23126A926DA0325242C26572E610B53C
:1050800000290FD5846A01230A462146FFF7EFFE67
:10509000A068012804DB2069012801DA022010BD84
:1050A000002010BDBDE810401BE7B52900DAB4218F
:1050B00013460A463C2180E6B52900DAB42113469E
:1050C0000A463C21AAE638B5044600292CD5A56A33
:1050D00001230A462946FFF7CAFEA868012821DBFA
:1050E000286901281EDA03212046FFF71DFE00284B
:1050F00018D194F96000014611F1010F04D100208C
:1051000084F86000012032BD002803D1012084F81A
:10511000600032BD012905D14FF0FF3084F86000F6
:10512000022032BD002032BDBDE83440D9E64FF048
:10513000FF3280F86020DFF8E422126A926DB43208
:105140005242C2650EE6B54A126A926D463252422A
:10515000C26507E680B5FFF705FEFEF7A6F8002159
:1051600080F81811012002BD80B5FFF710FEFEF790
:105170009CF8002180F81811012002BD70B400F1E4
:105180001402002313725372436153604372936499
:105190004FF0FF3380F860300023A04D1E4609E039
:1051A00003EB430400EB840484F830603034667011
:1051B00065605B1C022BF3DB33461374537455613B
:1051C0004FF0FF33136353639363D36313645364E8
:1051D000C16770BC7047000018B4924A52F8202092
:1051E000002A05D101460FF2D82014BCFEF7BCB846
:1051F00010720FF2E423C2F88030401E1E2800F225
:10520000E580DFE800F0104EE322876DE37AE3E308
:10521000E3E3E341E334B7AEC0E3E3C9E3E3D2E35E
:10522000E3A19460DB007D480823046A84F85C30C5
:10523000062393770A23D3772C30D0601846106169
:105240000FF2B020C2F88000C0E074480323046A63
:105250005C346370062393770A23D3773830D060A9
:10526000184610610FF2C420C2F88000AEE00C2096
:1052700090771020D0776C48D060102010610FF22A
:10528000C820C2F88000A1E00C2090771020D077D1
:105290006648D060102010610FF2C820C2F880006C
:1052A00094E05E480823046A5C34A3700723937774
:1052B0000B23D3775430D060184610610FF2A4202E
:1052C000C2F8800082E0062090770A20D077584804
:1052D000D0600A2010610FF28C20C2F8800075E0C7
:1052E000062090770A20D0775248D0600A201061BB
:1052F0000FF28C20C2F8800068E002209077062030
:10530000D0774D48D060062010610FF2AC20C2F873
:1053100080005BE0122090771620D0774748D0605D
:10532000162010610FF27420C2F880004EE00220B7
:1053300090770620D0774248D060062010610FF2A7
:105340009420C2F8800041E0062090770A20D077B0
:105350003C48D0600A2010610FF2B410C2F88000FF
:1053600034E0012090770520D0773748D0600520C1
:1053700010612BE0012090770520D0773348D06072
:105380000520106122E0042090770820D077304873
:10539000D0600820106119E0012090770520D077B7
:1053A0002C48D0600520106110E001209077052086
:1053B000D0772948D0600520106107E0062090775B
:1053C0000A20D0772548D0600A201061104614BC0E
:1053D000D4E6144951F82000007F704710B50F4CF7
:1053E000FEF78CFA20624FF0FF30A060E0600020F2
:1053F000206104F07AFF04F0E7F805F0A9FCFDF75E
:105400005CFA05F012FFFDF706FD06F095FA06F0CE
:10541000BEFABDE8104006F0C2BA000048190020EC
:10542000501E0020946F00208C190020A819002025
:10543000B8190020C4190020E8190020D019002054
:10544000F0190020F8190020041A0020141A002076
:105450000C1A00201C1A0020241A00202C1A0020EC
:10546000736176652062616B206F64722025642C05
:105470002025642C2025642C2025642C2025640004
:1054800041442025642025642025642025642C20A7
:1054900025640000524D20256420256420256420C9
:1054A000256420256400000073656E736F722028E8
:1054B000256429202A206973206E756C6C00000019
:1054C00073656E736F7228256429202A2069732002
:1054D0006E756C6C00000000B74D0008654D00084B
:1054E000B74D00088F4D0008234F00082F4F0008CC
:1054F0001B4F00083B4F0008654D00083B4F00085C
:105500008F4D0008234F00082F4F00081B4F000845
:10551000734F0008654D0008B74D00089D4F000807
:105520005F4F0008694F00081B4F0008B74D000887
:10553000CB4F0008B74D00088F4D0008DD4F000825
:105540002F4F000805500008B74D000831500008E3
:10555000B74D00088F4D0008234F00082F4F00085B
:1055600043500008B74D00086F500008B74D0008C1
:105570008F4D0008234F00082F4F00087F50000870
:10558000B74D00082F510008B74D00088F4D000897
:10559000AB500008B9500008C7500008B74D0008CC
:1055A00047510008B74D00088F4D0008234F0008F1
:1055B0002F4F00081B4F0008B74D00085551000839
:1055C000B74D000869510008234F00082F4F00080D
:1055D0001B4F0008B74D0008654D0008B74D000887
:1055E0008F4D0008234F00082F4F00081B4F000865
:1055F00013F0004C03D55B42524263F100039CEA76
:10560000210C00F0178010B5644603D34942404294
:1056100061F1000100F00EF8640004D349424042F9
:1056200061F10001244203D55B42524263F1000361
:1056300010BD00001B4213D1094236D12AB1844665
:10564000B0FBF2F002FB10C2704706F071BAFCD357
:105650000022002370470B00020000210020704749
:10566000904271EB030CF6D370B5B1FA81F4B3FA42
:1056700083F52C1BA340C4F1200532FA05F6334311
:10568000A2405FF00046E64002E05B085FEA3202BB
:10569000841A71EB030524BF204629467641F4D3D2
:1056A00002000B003000002170BD012ACFD970B577
:1056B000140C20D0B1FA81F4B2FA82F5C4F12004BE
:1056C0006419B4F12006D6D3B2405FF00044F44030
:1056D000002502E052085FEA3303C61A71EB020E9E
:1056E00024BF3046714664416D41F3D302000B0084
:1056F0002000290070BD0C46B1FBF2F102FB114500
:105700002D0445EA1045B5FBF2F402FB145580B2B6
:1057100040EA0545B5FBF2F002FB105240EA0440B6
:1057200070BD0268531C0360117070470022FCF7C3
:10573000B5B9000008B584B00023029311B90093F5
:10574000019302E00090481E019004AB00A90748B5
:105750007844183006F0EEF9009911B1009A002152
:105760001170002858BF029805B000BDFBC3FFFFB1
:1057700000F10103810704D010F8011B89B18107F2
:10578000FAD10268B2F10131914311F0803F04BFB8
:1057900050F8042FF6E710F8011B11B110F8011BA7
:1057A000FBE7C01A7047000000B585B002460FF253
:1057B000140100A807F094F800A8C046C04605B040
:1057C00000BD00004F45256400000000344881689A
:1057D000002904BF08B008E0EFF30982A2F1280213
:1057E000036882E8F84F83685A6000F056F98168D0
:1057F00059B14A6892E8F84F036002F1280282F337
:10580000098813F47F4F3FD070472648264909681E
:10581000401A80F308884FF08071C161234981618B
:105820007FF0060E704701BC2046DFF884E000BD23
:10583000FEE7204800681C490968401A203820F01B
:10584000070080F308884FF000011548417081F38C
:10585000118862B600F014F8FEE703680CB44FF04C
:10586000000141704FF0000181F311881249134A81
:105870000A604FF0800181F311880CBC036070470F
:105880000D490E4A0A6070474FF0000181F31188FC
:10589000704700BF4FF0800181F31188704700BF4F
:1058A000501E002028080020B4BB010893CA00083D
:1058B000315800080000000804ED00E0000000106E
:1058C00010B4802080F3118800BF00BFDFF8C0074C
:1058D0008068DFF8BC1700220A71002181F311886B
:1058E00000282ED0016800292BD04269016849693F
:1058F000914226D1016800E019000B68002B02D00C
:105900005C699442F8D0802282F3118800BF00BF06
:10591000DFF87C271269824203D1DFF8742703681D
:105920001361026A036813601A6201620B68036004
:105930000268002A00D01862086091F8450081F8DA
:105940004400002080F3118810BC7047802080F351
:10595000118800BF00BFDFF83C070068DFF8301790
:10596000096A401A01283ADADFF82407006A05E0DC
:10597000DFF81C170862002181F31188DFF818177F
:105980000978C90726D5802181F3118800BF00BF9F
:10599000DFF8041709788907EAD5DFF8FC160978DB
:1059A00011F0FD01DFF8F0261170002181F311885C
:1059B000DFF8DC16096A8842FAD0DFF8D4160862EC
:1059C000DFF8D0060068401CDFF8C8160860DFF872
:1059D000C0164862802080F3118800BF00BF704766
:1059E00010B5DFF8AC0600214171DFF8A406006AAB
:1059F00010F18040DFF898164862DFF89406C0691D
:105A0000002805D0DFF88806DFF88416C9698847C2
:105A1000002080F31188DFF87806C4680EE0E068A3
:105A2000DFF86C16496A401A002803D5DFF86006D3
:105A3000E1684162002080F311882468002C26D0A0
:105A4000802080F3118800BF00BFDFF844060069A2
:105A5000002806D06069DFF838160969496988426C
:105A60001AD3207C4007E5D5E068DFF82416096AE0
:105A7000401A0128D3DA200000F036FA802080F3A3
:105A8000118800BF00BF207C0028C8D104E080201E
:105A900080F3118800BF00BF10BD38B5DFF8F005F6
:105AA00000214170DFF8E80501210170DFF8E00511
:105AB000C06B002818D0802080F3118800BF00BF81
:105AC000DFF8CC05C06B8047002080F31188DFF839
:105AD000C0050021C163DFF8B80500214163DFF88C
